{
  "contractName": "AuctionFactory",
  "abi": [
    {
      "anonymous": false,
      "inputs": [
        {
          "indexed": true,
          "internalType": "address",
          "name": "auction",
          "type": "address"
        },
        {
          "indexed": false,
          "internalType": "address",
          "name": "owner",
          "type": "address"
        },
        {
          "indexed": false,
          "internalType": "uint256",
          "name": "endTime",
          "type": "uint256"
        },
        {
          "indexed": false,
          "internalType": "uint256",
          "name": "initialPrice",
          "type": "uint256"
        },
        {
          "indexed": false,
          "internalType": "uint256",
          "name": "step",
          "type": "uint256"
        }
      ],
      "name": "AUCTION_CREATED",
      "type": "event"
    },
    {
      "anonymous": false,
      "inputs": [
        {
          "indexed": true,
          "internalType": "address",
          "name": "previousOwner",
          "type": "address"
        },
        {
          "indexed": true,
          "internalType": "address",
          "name": "newOwner",
          "type": "address"
        }
      ],
      "name": "OwnershipTransferred",
      "type": "event"
    },
    {
      "constant": true,
      "inputs": [],
      "name": "isOwner",
      "outputs": [
        {
          "internalType": "bool",
          "name": "",
          "type": "bool"
        }
      ],
      "payable": false,
      "stateMutability": "view",
      "type": "function"
    },
    {
      "constant": true,
      "inputs": [],
      "name": "owner",
      "outputs": [
        {
          "internalType": "address",
          "name": "",
          "type": "address"
        }
      ],
      "payable": false,
      "stateMutability": "view",
      "type": "function"
    },
    {
      "constant": false,
      "inputs": [],
      "name": "renounceOwnership",
      "outputs": [],
      "payable": false,
      "stateMutability": "nonpayable",
      "type": "function"
    },
    {
      "constant": false,
      "inputs": [
        {
          "internalType": "address",
          "name": "newOwner",
          "type": "address"
        }
      ],
      "name": "transferOwnership",
      "outputs": [],
      "payable": false,
      "stateMutability": "nonpayable",
      "type": "function"
    },
    {
      "constant": false,
      "inputs": [
        {
          "internalType": "uint256",
          "name": "endTime",
          "type": "uint256"
        },
        {
          "internalType": "uint256",
          "name": "initialPrice",
          "type": "uint256"
        },
        {
          "internalType": "uint256",
          "name": "step",
          "type": "uint256"
        },
        {
          "internalType": "address payable",
          "name": "auctionOwner",
          "type": "address"
        }
      ],
      "name": "createAuction",
      "outputs": [
        {
          "internalType": "address",
          "name": "",
          "type": "address"
        }
      ],
      "payable": false,
      "stateMutability": "nonpayable",
      "type": "function"
    },
    {
      "constant": false,
      "inputs": [],
      "name": "initialize",
      "outputs": [],
      "payable": false,
      "stateMutability": "nonpayable",
      "type": "function"
    },
    {
      "constant": false,
      "inputs": [
        {
          "internalType": "address",
          "name": "sender",
          "type": "address"
        }
      ],
      "name": "initialize",
      "outputs": [],
      "payable": false,
      "stateMutability": "nonpayable",
      "type": "function"
    },
    {
      "constant": false,
      "inputs": [
        {
          "internalType": "address",
          "name": "_template",
          "type": "address"
        }
      ],
      "name": "setTemplate",
      "outputs": [],
      "payable": false,
      "stateMutability": "nonpayable",
      "type": "function"
    },
    {
      "constant": false,
      "inputs": [
        {
          "internalType": "address",
          "name": "_token",
          "type": "address"
        }
      ],
      "name": "setTokenAddress",
      "outputs": [],
      "payable": false,
      "stateMutability": "nonpayable",
      "type": "function"
    },
    {
      "constant": true,
      "inputs": [],
      "name": "getTokenAddress",
      "outputs": [
        {
          "internalType": "address",
          "name": "",
          "type": "address"
        }
      ],
      "payable": false,
      "stateMutability": "view",
      "type": "function"
    }
  ],
  "bytecode": "0x6080604052610884806100136000396000f3fe608060405234801561001057600080fd5b50600436106100bb576000357c01000000000000000000000000000000000000000000000000000000009004806389c716d11161008357806389c716d1146101545780638da5cb5b1461017a5780638f32d59b14610182578063c4d66de81461019e578063f2fde38b146101c4576100bb565b806310fe9ae8146100c057806326a4e8d2146100e4578063715018a61461010c5780638129fc1c14610114578063819c9e4c1461011c575b600080fd5b6100c86101ea565b60408051600160a060020a039092168252519081900360200190f35b61010a600480360360208110156100fa57600080fd5b5035600160a060020a03166101f9565b005b61010a610272565b61010a610313565b6100c86004803603608081101561013257600080fd5b5080359060208101359060408101359060600135600160a060020a031661031e565b61010a6004803603602081101561016a57600080fd5b5035600160a060020a0316610426565b6100c861049f565b61018a6104ae565b604080519115158252519081900360200190f35b61010a600480360360208110156101b457600080fd5b5035600160a060020a03166104d4565b61010a600480360360208110156101da57600080fd5b5035600160a060020a03166105d6565b606754600160a060020a031690565b6102016104ae565b610243576040805160e560020a62461bcd0281526020600482018190526024820152600080516020610802833981519152604482015290519081900360640190fd5b6067805473ffffffffffffffffffffffffffffffffffffffff1916600160a060020a0392909216919091179055565b61027a6104ae565b6102bc576040805160e560020a62461bcd0281526020600482018190526024820152600080516020610802833981519152604482015290519081900360640190fd5b603354604051600091600160a060020a0316907f8be0079c531659141344cd1fd0a4f28419497f9722a3daafe3b4186f6b6457e0908390a36033805473ffffffffffffffffffffffffffffffffffffffff19169055565b61031c336104d4565b565b60008061032961062c565b606754604080517fcd3d8687000000000000000000000000000000000000000000000000000000008152600481018a9052600160a060020a0392831660248201526044810189905260648101889052868316608482015290519293509083169163cd3d86879160a48082019260009290919082900301818387803b1580156103b057600080fd5b505af11580156103c4573d6000803e3d6000fd5b505060408051600160a060020a038781168252602082018b90528183018a905260608201899052915191851693507f68b9714c5ca8470902ce8a9a0c18f24f049eba25363d59764f0f3af1b2586495925081900360800190a295945050505050565b61042e6104ae565b610470576040805160e560020a62461bcd0281526020600482018190526024820152600080516020610802833981519152604482015290519081900360640190fd5b6066805473ffffffffffffffffffffffffffffffffffffffff1916600160a060020a0392909216919091179055565b603354600160a060020a031690565b603354600090600160a060020a03166104c56106ad565b600160a060020a031614905090565b600054610100900460ff16806104ed57506104ed6106b1565b806104fb575060005460ff16155b6105395760405160e560020a62461bcd02815260040180806020018281038252602e815260200180610822602e913960400191505060405180910390fd5b600054610100900460ff16158015610564576000805460ff1961ff0019909116610100171660011790555b6033805473ffffffffffffffffffffffffffffffffffffffff1916600160a060020a0384811691909117918290556040519116906000907f8be0079c531659141344cd1fd0a4f28419497f9722a3daafe3b4186f6b6457e0908290a380156105d2576000805461ff00191690555b5050565b6105de6104ae565b610620576040805160e560020a62461bcd0281526020600482018190526024820152600080516020610802833981519152604482015290519081900360640190fd5b610629816106b7565b50565b606654600090600160a060020a031661068f576040805160e560020a62461bcd02815260206004820181905260248201527f436f6e7472616374206973206e6f742079657420696e697469616c697a65642e604482015290519081900360640190fd5b6066546000906106a790600160a060020a0316610768565b91505090565b3390565b303b1590565b600160a060020a0381166106ff5760405160e560020a62461bcd0281526004018080602001828103825260268152602001806107dc6026913960400191505060405180910390fd5b603354604051600160a060020a038084169216907f8be0079c531659141344cd1fd0a4f28419497f9722a3daafe3b4186f6b6457e090600090a36033805473ffffffffffffffffffffffffffffffffffffffff1916600160a060020a0392909216919091179055565b6040517f3d602d80600a3d3981f3363d3d373d3d3d363d7300000000000000000000000081526c010000000000000000000000008202601482018190527f5af43d82803e903d91602b57fd5bf30000000000000000000000000000000000602883015260009160378184f094935050505056fe4f776e61626c653a206e6577206f776e657220697320746865207a65726f20616464726573734f776e61626c653a2063616c6c6572206973206e6f7420746865206f776e6572436f6e747261637420696e7374616e63652068617320616c7265616479206265656e20696e697469616c697a6564a265627a7a723158204ed71b558a8cce42162c1d3b44492d466a93d51053850ed2304f4638b824f5b064736f6c63430005110032",
  "source": "pragma solidity ^0.5.17;\n\nimport { IERC20 } from '@openzeppelin/contracts-ethereum-package/contracts/token/ERC20/IERC20.sol';\nimport { Initializable } from '@openzeppelin/upgrades/contracts/Initializable.sol';\nimport { Ownable } from '@openzeppelin/contracts-ethereum-package/contracts/ownership/Ownable.sol';\nimport { SafeMath } from '@openzeppelin/contracts-ethereum-package/contracts/math/SafeMath.sol';\n\nimport { IAuctionFactory } from './interfaces/IAuctionFactory.sol';\nimport { IAuction } from './interfaces/IAuction.sol';\n\ncontract AuctionFactory is IAuctionFactory, Ownable {\n    address private template;\n    address private token;\n\n    function createAuction(\n        uint256 endTime,\n        uint256 initialPrice,\n        uint256 step,\n        address payable auctionOwner\n    ) external returns (address) {\n        IAuction auction = cloneAuctionTemplate();\n        auction.initialize(\n            endTime,\n            token,\n            initialPrice,\n            step,\n            auctionOwner\n        );\n\n        emit AUCTION_CREATED(\n            address(auction),\n            auctionOwner,\n            endTime,\n            initialPrice,\n            step\n        );\n        return address(auction);\n    }\n\n    function initialize() public {\n        Ownable.initialize(msg.sender);\n    }\n\n    function setTemplate(address _template) public onlyOwner {\n        template = _template;\n    }\n\n    function setTokenAddress(address _token) public onlyOwner {\n        token = _token;\n    }\n\n    function getTokenAddress() public view returns (address) {\n        return token;\n    }\n\n    function cloneAuctionTemplate() internal returns (IAuction) {\n        require(template != address(0), 'Contract is not yet initialized.');\n        address payable auction = address(uint160(createClone(template)));\n        return IAuction(auction);\n    }\n\n    function createClone(address target) internal returns (address result) {\n        bytes20 targetBytes = bytes20(target);\n        assembly {\n            let clone := mload(0x40)\n            mstore(clone, 0x3d602d80600a3d3981f3363d3d373d3d3d363d73000000000000000000000000)\n            mstore(add(clone, 0x14), targetBytes)\n            mstore(add(clone, 0x28), 0x5af43d82803e903d91602b57fd5bf30000000000000000000000000000000000)\n            result := create(0, clone, 0x37)\n        }\n    }\n}\n",
  "sourcePath": "/home/runner/work/auction-template/auction-template/contracts/AuctionFactory.sol",
  "compiler": {
    "name": "solc",
    "version": "0.5.17+commit.d19bba13.Emscripten.clang"
  },
  "schemaVersion": "3.3.4",
  "updatedAt": "2021-04-21T09:23:56.329Z",
  "devdoc": {
    "methods": {
      "initialize(address)": {
        "details": "Initializes the contract setting the deployer as the initial owner."
      },
      "isOwner()": {
        "details": "Returns true if the caller is the current owner."
      },
      "owner()": {
        "details": "Returns the address of the current owner."
      },
      "renounceOwnership()": {
        "details": "Leaves the contract without owner. It will not be possible to call `onlyOwner` functions anymore. Can only be called by the current owner.     * > Note: Renouncing ownership will leave the contract without an owner, thereby removing any functionality that is only available to the owner."
      },
      "transferOwnership(address)": {
        "details": "Transfers ownership of the contract to a new account (`newOwner`). Can only be called by the current owner."
      }
    }
  },
  "userdoc": {
    "methods": {}
  }
}