{
  "contractName": "Auction",
  "abi": [
    {
      "anonymous": false,
      "inputs": [
        {
          "indexed": false,
          "internalType": "uint256",
          "name": "timestamp",
          "type": "uint256"
        }
      ],
      "name": "AUCTION_CANCELED",
      "type": "event"
    },
    {
      "anonymous": false,
      "inputs": [
        {
          "indexed": false,
          "internalType": "uint256",
          "name": "timestamp",
          "type": "uint256"
        }
      ],
      "name": "AUCTION_STOPPED",
      "type": "event"
    },
    {
      "anonymous": false,
      "inputs": [
        {
          "indexed": true,
          "internalType": "address",
          "name": "returnTo",
          "type": "address"
        },
        {
          "indexed": false,
          "internalType": "uint256",
          "name": "amount",
          "type": "uint256"
        }
      ],
      "name": "BID_RETURNED",
      "type": "event"
    },
    {
      "anonymous": false,
      "inputs": [
        {
          "indexed": true,
          "internalType": "address",
          "name": "newBidder",
          "type": "address"
        },
        {
          "indexed": true,
          "internalType": "address",
          "name": "prevBidder",
          "type": "address"
        },
        {
          "indexed": false,
          "internalType": "uint256",
          "name": "newPrice",
          "type": "uint256"
        },
        {
          "indexed": false,
          "internalType": "uint256",
          "name": "prevPrice",
          "type": "uint256"
        }
      ],
      "name": "NEW_BID",
      "type": "event"
    },
    {
      "anonymous": false,
      "inputs": [
        {
          "indexed": true,
          "internalType": "address",
          "name": "previousOwner",
          "type": "address"
        },
        {
          "indexed": true,
          "internalType": "address",
          "name": "newOwner",
          "type": "address"
        }
      ],
      "name": "OwnershipTransferred",
      "type": "event"
    },
    {
      "anonymous": false,
      "inputs": [
        {
          "indexed": true,
          "internalType": "address",
          "name": "account",
          "type": "address"
        },
        {
          "indexed": false,
          "internalType": "uint256",
          "name": "amount",
          "type": "uint256"
        }
      ],
      "name": "WITHDRAWED",
      "type": "event"
    },
    {
      "constant": true,
      "inputs": [],
      "name": "isOwner",
      "outputs": [
        {
          "internalType": "bool",
          "name": "",
          "type": "bool"
        }
      ],
      "payable": false,
      "stateMutability": "view",
      "type": "function"
    },
    {
      "constant": true,
      "inputs": [],
      "name": "owner",
      "outputs": [
        {
          "internalType": "address",
          "name": "",
          "type": "address"
        }
      ],
      "payable": false,
      "stateMutability": "view",
      "type": "function"
    },
    {
      "constant": false,
      "inputs": [],
      "name": "renounceOwnership",
      "outputs": [],
      "payable": false,
      "stateMutability": "nonpayable",
      "type": "function"
    },
    {
      "constant": false,
      "inputs": [
        {
          "internalType": "address",
          "name": "newOwner",
          "type": "address"
        }
      ],
      "name": "transferOwnership",
      "outputs": [],
      "payable": false,
      "stateMutability": "nonpayable",
      "type": "function"
    },
    {
      "constant": false,
      "inputs": [
        {
          "internalType": "address",
          "name": "sender",
          "type": "address"
        }
      ],
      "name": "initialize",
      "outputs": [],
      "payable": false,
      "stateMutability": "nonpayable",
      "type": "function"
    },
    {
      "constant": false,
      "inputs": [
        {
          "internalType": "uint256",
          "name": "_endTime",
          "type": "uint256"
        },
        {
          "internalType": "address",
          "name": "_coin",
          "type": "address"
        },
        {
          "internalType": "uint256",
          "name": "basePrice",
          "type": "uint256"
        },
        {
          "internalType": "uint256",
          "name": "_step",
          "type": "uint256"
        },
        {
          "internalType": "address payable",
          "name": "_owner",
          "type": "address"
        }
      ],
      "name": "initialize",
      "outputs": [],
      "payable": false,
      "stateMutability": "nonpayable",
      "type": "function"
    },
    {
      "constant": true,
      "inputs": [],
      "name": "currentBidder",
      "outputs": [
        {
          "internalType": "address",
          "name": "",
          "type": "address"
        }
      ],
      "payable": false,
      "stateMutability": "view",
      "type": "function"
    },
    {
      "constant": true,
      "inputs": [],
      "name": "currentPrice",
      "outputs": [
        {
          "internalType": "uint256",
          "name": "",
          "type": "uint256"
        }
      ],
      "payable": false,
      "stateMutability": "view",
      "type": "function"
    },
    {
      "constant": false,
      "inputs": [
        {
          "internalType": "uint256",
          "name": "maxValue",
          "type": "uint256"
        }
      ],
      "name": "bid",
      "outputs": [
        {
          "internalType": "uint256",
          "name": "actualBidPrice",
          "type": "uint256"
        }
      ],
      "payable": false,
      "stateMutability": "nonpayable",
      "type": "function"
    },
    {
      "constant": true,
      "inputs": [],
      "name": "remainTime",
      "outputs": [
        {
          "internalType": "uint256",
          "name": "remainSeconds",
          "type": "uint256"
        }
      ],
      "payable": false,
      "stateMutability": "view",
      "type": "function"
    },
    {
      "constant": true,
      "inputs": [],
      "name": "isClosed",
      "outputs": [
        {
          "internalType": "bool",
          "name": "",
          "type": "bool"
        }
      ],
      "payable": false,
      "stateMutability": "view",
      "type": "function"
    },
    {
      "constant": false,
      "inputs": [],
      "name": "cancel",
      "outputs": [
        {
          "internalType": "bool",
          "name": "",
          "type": "bool"
        }
      ],
      "payable": false,
      "stateMutability": "nonpayable",
      "type": "function"
    },
    {
      "constant": false,
      "inputs": [],
      "name": "stop",
      "outputs": [
        {
          "internalType": "bool",
          "name": "",
          "type": "bool"
        }
      ],
      "payable": false,
      "stateMutability": "nonpayable",
      "type": "function"
    },
    {
      "constant": false,
      "inputs": [],
      "name": "withdraw",
      "outputs": [
        {
          "internalType": "bool",
          "name": "",
          "type": "bool"
        }
      ],
      "payable": false,
      "stateMutability": "nonpayable",
      "type": "function"
    }
  ],
  "bytecode": "0x6080604052611035806100136000396000f3fe608060405234801561001057600080fd5b5060043610610107576000357c0100000000000000000000000000000000000000000000000000000000900480639d1b464a116100a9578063cd3d868711610083578063cd3d8687146101d3578063d33db69714610213578063ea8a1af01461021b578063f2fde38b1461022357610107565b80639d1b464a1461019d578063c2b6b58c146101a5578063c4d66de8146101ad57610107565b80634a7e130e116100e55780634a7e130e1461015f578063715018a6146101675780638da5cb5b146101715780638f32d59b1461019557610107565b806307da68f51461010c5780633ccfd60b14610128578063454a2ab314610130575b600080fd5b610114610249565b604080519115158252519081900360200190f35b61011461033f565b61014d6004803603602081101561014657600080fd5b503561050f565b60408051918252519081900360200190f35b61014d610769565b61016f6107a3565b005b610179610844565b60408051600160a060020a039092168252519081900360200190f35b610114610853565b61014d610879565b61011461087f565b61016f600480360360208110156101c357600080fd5b5035600160a060020a031661089c565b61016f600480360360a08110156101e957600080fd5b50803590600160a060020a036020820135811691604081013591606082013591608001351661099e565b610179610a8d565b610114610a9c565b61016f6004803603602081101561023957600080fd5b5035600160a060020a0316610b9b565b6000610253610853565b610295576040805160e560020a62461bcd0281526020600482018190526024820152600080516020610f40833981519152604482015290519081900360640190fd5b61029d61087f565b156102f2576040805160e560020a62461bcd02815260206004820152601d60248201527f5468652061756374696f6e20697320616c726561647920636c6f736564000000604482015290519081900360640190fd5b606a805460ff191660011790557f90831a78827e73c294c4cdfc651a4f900b0b951b605a6431f534d6f46a076588610328610bf1565b60408051918252519081900360200190a150600190565b6000610349610853565b61038b576040805160e560020a62461bcd0281526020600482018190526024820152600080516020610f40833981519152604482015290519081900360640190fd5b61039361087f565b6103d15760405160e560020a62461bcd028152600401808060200182810382526036815260200180610f0a6036913960400191505060405180910390fd5b606654600160a060020a0316610431576040805160e560020a62461bcd02815260206004820152601a60248201527f4e6f2062696464696e677320746f207468652061756374696f6e000000000000604482015290519081900360640190fd5b606a54606754604080517fa9059cbb000000000000000000000000000000000000000000000000000000008152336004820152602481019290925251610100909204600160a060020a03169163a9059cbb916044808201926020929091908290030181600087803b1580156104a557600080fd5b505af11580156104b9573d6000803e3d6000fd5b505050506040513d60208110156104cf57600080fd5b5050606754604080519182525133917fcccb996f8a0b4acd4f6f6f6d311f97341abf0a3ca926ec841f7601d4f956efb6919081900360200190a250600190565b600061051961087f565b1561056e576040805160e560020a62461bcd02815260206004820152601560248201527f5468652061756374696f6e20697320636c6f7365640000000000000000000000604482015290519081900360640190fd5b606654600160a060020a03163314156105bb5760405160e560020a62461bcd02815260040180806020018281038252602c815260200180610fd5602c913960400191505060405180910390fd5b606654600090600160a060020a0316156105e9576068546067546105e49163ffffffff610bf516565b6105ed565b6067545b90508215806105fc5750808310155b61063a5760405160e560020a62461bcd028152600401808060200182810382526026815260200180610faf6026913960400191505060405180910390fd5b6067805460668054928490553373ffffffffffffffffffffffffffffffffffffffff1984168117909155606a54604080517f23b872dd000000000000000000000000000000000000000000000000000000008152600481019390935230602484015260448301869052519293600160a060020a039081169361010090920416916323b872dd9160648083019260209291908290030181600087803b1580156106e157600080fd5b505af11580156106f5573d6000803e3d6000fd5b505050506040513d602081101561070b57600080fd5b5061071890508183610c59565b60408051848152602081018490528151600160a060020a0384169233927f5943480761189bed6b24fe892d33e664891bb137b6c8692b63769a2341799167929081900390910190a350909392505050565b6000606954610776610bf1565b101561079b57610796610787610bf1565b6069549063ffffffff610d4c16565b61079e565b60005b905090565b6107ab610853565b6107ed576040805160e560020a62461bcd0281526020600482018190526024820152600080516020610f40833981519152604482015290519081900360640190fd5b603354604051600091600160a060020a0316907f8be0079c531659141344cd1fd0a4f28419497f9722a3daafe3b4186f6b6457e0908390a36033805473ffffffffffffffffffffffffffffffffffffffff19169055565b603354600160a060020a031690565b603354600090600160a060020a031661086a610d8e565b600160a060020a031614905090565b60675490565b606a5460009060ff168061079e5750610896610769565b15905090565b600054610100900460ff16806108b557506108b5610d92565b806108c3575060005460ff16155b6109015760405160e560020a62461bcd02815260040180806020018281038252602e815260200180610f60602e913960400191505060405180910390fd5b600054610100900460ff1615801561092c576000805460ff1961ff0019909116610100171660011790555b6033805473ffffffffffffffffffffffffffffffffffffffff1916600160a060020a0384811691909117918290556040519116906000907f8be0079c531659141344cd1fd0a4f28419497f9722a3daafe3b4186f6b6457e0908290a3801561099a576000805461ff00191690555b5050565b600054610100900460ff16806109b757506109b7610d92565b806109c5575060005460ff16155b610a035760405160e560020a62461bcd02815260040180806020018281038252602e815260200180610f60602e913960400191505060405180910390fd5b600054610100900460ff16158015610a2e576000805460ff1961ff0019909116610100171660011790555b610a378261089c565b606784905560688390556069869055606a805474ffffffffffffffffffffffffffffffffffffffff001916610100600160a060020a038816021790558015610a85576000805461ff00191690555b505050505050565b606654600160a060020a031690565b6000610aa6610853565b610ae8576040805160e560020a62461bcd0281526020600482018190526024820152600080516020610f40833981519152604482015290519081900360640190fd5b610af061087f565b15610b2f5760405160e560020a62461bcd028152600401808060200182810382526021815260200180610f8e6021913960400191505060405180910390fd5b606654606754610b4891600160a060020a031690610c59565b6066805473ffffffffffffffffffffffffffffffffffffffff19169055606a805460ff191660011790557f19954fcc53548511459d25d3fbb956e5e6441d33a0d67767044c3cfef7524a85610328610bf1565b610ba3610853565b610be5576040805160e560020a62461bcd0281526020600482018190526024820152600080516020610f40833981519152604482015290519081900360640190fd5b610bee81610d98565b50565b4290565b600082820183811015610c52576040805160e560020a62461bcd02815260206004820152601b60248201527f536166654d6174683a206164646974696f6e206f766572666c6f770000000000604482015290519081900360640190fd5b9392505050565b600160a060020a0382161561099a57606a54604080517fa9059cbb000000000000000000000000000000000000000000000000000000008152600160a060020a0385811660048301526024820185905291516101009093049091169163a9059cbb916044808201926020929091908290030181600087803b158015610cdd57600080fd5b505af1158015610cf1573d6000803e3d6000fd5b505050506040513d6020811015610d0757600080fd5b5050604080518281529051600160a060020a038416917fe6b64f96985984afb23f29b4cd0130effacea6a3cf7e1232cefa35122d880e11919081900360200190a25050565b6000610c5283836040518060400160405280601e81526020017f536166654d6174683a207375627472616374696f6e206f766572666c6f770000815250610e49565b3390565b303b1590565b600160a060020a038116610de05760405160e560020a62461bcd028152600401808060200182810382526026815260200180610ee46026913960400191505060405180910390fd5b603354604051600160a060020a038084169216907f8be0079c531659141344cd1fd0a4f28419497f9722a3daafe3b4186f6b6457e090600090a36033805473ffffffffffffffffffffffffffffffffffffffff1916600160a060020a0392909216919091179055565b60008184841115610edb5760405160e560020a62461bcd0281526004018080602001828103825283818151815260200191508051906020019080838360005b83811015610ea0578181015183820152602001610e88565b50505050905090810190601f168015610ecd5780820380516001836020036101000a031916815260200191505b509250505060405180910390fd5b50505090039056fe4f776e61626c653a206e6577206f776e657220697320746865207a65726f20616464726573734f776e65722063616e206f6e6c79207769746864726177206173736574732061667465722061756374696f6e20697320636c6f7365644f776e61626c653a2063616c6c6572206973206e6f7420746865206f776e6572436f6e747261637420696e7374616e63652068617320616c7265616479206265656e20696e697469616c697a6564556e61626c6520746f2063616e63656c206120636c6f7365642061756374696f6e43757272656e742062696464696e672070726963652065786365656420616c6c6f77616e636543757272656e742068696768657374206269642069732066726f6d207468652073616d65206163636f756e74a265627a7a723158201179ae50f41bd8d94be03266d989d55170ef4fb96aad496306f46c0ca2fbc3b664736f6c63430005110032",
  "source": "pragma solidity ^0.5.17;\n\nimport '@openzeppelin/contracts-ethereum-package/contracts/math/SafeMath.sol';\nimport '@openzeppelin/contracts-ethereum-package/contracts/ownership/Ownable.sol';\nimport '@openzeppelin/contracts-ethereum-package/contracts/token/ERC20/IERC20.sol';\nimport '@openzeppelin/upgrades/contracts/Initializable.sol';\n\nimport './interfaces/IAuction.sol';\n\ncontract Auction is IAuction, Initializable, Ownable {\n    using SafeMath for uint256;\n\n    address private bidder;\n    uint256 private price;\n    uint256 private step;\n    uint256 private endTime;\n    bool private closed;\n    IERC20 private coin;\n\n    function initialize(\n        uint256 _endTime,\n        address _coin,\n        uint256 basePrice,\n        uint256 _step,\n        address payable _owner\n    ) external initializer {\n        Ownable.initialize(_owner);\n\n        price = basePrice;\n        step = _step;\n        endTime = _endTime;\n        coin = IERC20(_coin);\n    }\n\n    function currentBidder() external view returns (address) {\n        return bidder;\n    }\n\n    /** @notice Current bidding price, scaled by 1e18 */\n    function currentPrice() external view returns (uint256) {\n        return price;\n    }\n\n    /**\n     * @dev Every bidding increase by the \"step\" value. Users might bid over the price they saw in the UI.\n     * @dev Set the maxValue to 0 presents no price limit restriction.\n     */\n    function bid(uint256 maxValue) external returns (uint256 actualBidPrice) {\n        require(!isClosed(), 'The auction is closed');\n        require(bidder != msg.sender, 'Current highest bid is from the same account');\n\n        uint256 newPrice = bidder == address(0) ? price : price.add(step);\n        require(maxValue == 0 || maxValue >= newPrice, 'Current bidding price exceed allowance');\n\n        uint256 lastPrice = price;\n        address lastBidder = bidder;\n        price = newPrice;\n        bidder = msg.sender;\n\n        coin.transferFrom(msg.sender, address(this), newPrice);\n        returnLastBid(lastBidder, lastPrice);\n\n        emit NEW_BID(msg.sender, lastBidder, newPrice, lastPrice);\n\n\n        return newPrice;\n    }\n\n    function remainTime() public view returns (uint256 remainSeconds) {\n        return getTime() >= endTime ? 0 : endTime.sub(getTime());\n    }\n\n    function isClosed() public view returns (bool) {\n        return closed || remainTime() == 0;\n    }\n\n    //// ADMIN functions\n\n    /** @notice Cancel the auction, contract-holded TT-ETH will return to the last bidder. */\n    function cancel() external onlyOwner returns (bool) {\n        require(!isClosed(), 'Unable to cancel a closed auction');\n        returnLastBid(bidder, price);\n\n        bidder = address(0);\n        closed = true;\n        emit AUCTION_CANCELED(getTime());\n        return true;\n    }\n\n    /** @notice Force the auction stop. */\n    function stop() external onlyOwner returns (bool) {\n        require(!isClosed(), 'The auction is already closed');\n\n        closed = true;\n        emit AUCTION_STOPPED(getTime());\n        return true;\n    }\n\n    /** @notice Owner claim TT-ETH after auction stopped.  */\n    function withdraw() external onlyOwner returns (bool) {\n        require(isClosed(), 'Owner can only withdraw assets after auction is closed');\n        require(bidder != address(0), 'No biddings to the auction');\n\n        coin.transfer(msg.sender, price);\n        emit WITHDRAWED(msg.sender, price);\n        return true;\n    }\n\n    //// Internal functions\n\n    function returnLastBid(address lastBidder, uint256 lastPrice) internal {\n        if (lastBidder != address(0)) {\n            coin.transfer(lastBidder, lastPrice);\n            emit BID_RETURNED(lastBidder, lastPrice);\n        }\n    }\n\n    function getTime() internal view returns (uint256) {\n        return block.timestamp;\n    }\n}\n",
  "sourcePath": "/home/runner/work/auction-template/auction-template/contracts/Auction.sol",
  "compiler": {
    "name": "solc",
    "version": "0.5.17+commit.d19bba13.Emscripten.clang"
  },
  "schemaVersion": "3.3.4",
  "updatedAt": "2021-04-21T09:34:25.331Z",
  "devdoc": {
    "methods": {
      "bid(uint256)": {
        "details": "Every bidding increase by the \"step\" value. Users might bid over the price they saw in the UI.Set the maxValue to 0 presents no price limit restriction."
      },
      "initialize(address)": {
        "details": "Initializes the contract setting the deployer as the initial owner."
      },
      "isOwner()": {
        "details": "Returns true if the caller is the current owner."
      },
      "owner()": {
        "details": "Returns the address of the current owner."
      },
      "renounceOwnership()": {
        "details": "Leaves the contract without owner. It will not be possible to call `onlyOwner` functions anymore. Can only be called by the current owner.     * > Note: Renouncing ownership will leave the contract without an owner, thereby removing any functionality that is only available to the owner."
      },
      "transferOwnership(address)": {
        "details": "Transfers ownership of the contract to a new account (`newOwner`). Can only be called by the current owner."
      }
    }
  },
  "userdoc": {
    "methods": {
      "cancel()": {
        "notice": "Cancel the auction, contract-holded TT-ETH will return to the last bidder. "
      },
      "currentPrice()": {
        "notice": "Current bidding price, scaled by 1e18 "
      },
      "stop()": {
        "notice": "Force the auction stop. "
      },
      "withdraw()": {
        "notice": "Owner claim TT-ETH after auction stopped.  "
      }
    }
  }
}