{
  "contractName": "ERC20Pausable",
  "abi": [
    {
      "anonymous": false,
      "inputs": [
        {
          "indexed": true,
          "internalType": "address",
          "name": "owner",
          "type": "address"
        },
        {
          "indexed": true,
          "internalType": "address",
          "name": "spender",
          "type": "address"
        },
        {
          "indexed": false,
          "internalType": "uint256",
          "name": "value",
          "type": "uint256"
        }
      ],
      "name": "Approval",
      "type": "event"
    },
    {
      "anonymous": false,
      "inputs": [
        {
          "indexed": false,
          "internalType": "address",
          "name": "account",
          "type": "address"
        }
      ],
      "name": "Paused",
      "type": "event"
    },
    {
      "anonymous": false,
      "inputs": [
        {
          "indexed": true,
          "internalType": "address",
          "name": "account",
          "type": "address"
        }
      ],
      "name": "PauserAdded",
      "type": "event"
    },
    {
      "anonymous": false,
      "inputs": [
        {
          "indexed": true,
          "internalType": "address",
          "name": "account",
          "type": "address"
        }
      ],
      "name": "PauserRemoved",
      "type": "event"
    },
    {
      "anonymous": false,
      "inputs": [
        {
          "indexed": true,
          "internalType": "address",
          "name": "from",
          "type": "address"
        },
        {
          "indexed": true,
          "internalType": "address",
          "name": "to",
          "type": "address"
        },
        {
          "indexed": false,
          "internalType": "uint256",
          "name": "value",
          "type": "uint256"
        }
      ],
      "name": "Transfer",
      "type": "event"
    },
    {
      "anonymous": false,
      "inputs": [
        {
          "indexed": false,
          "internalType": "address",
          "name": "account",
          "type": "address"
        }
      ],
      "name": "Unpaused",
      "type": "event"
    },
    {
      "constant": false,
      "inputs": [
        {
          "internalType": "address",
          "name": "account",
          "type": "address"
        }
      ],
      "name": "addPauser",
      "outputs": [],
      "payable": false,
      "stateMutability": "nonpayable",
      "type": "function"
    },
    {
      "constant": true,
      "inputs": [
        {
          "internalType": "address",
          "name": "owner",
          "type": "address"
        },
        {
          "internalType": "address",
          "name": "spender",
          "type": "address"
        }
      ],
      "name": "allowance",
      "outputs": [
        {
          "internalType": "uint256",
          "name": "",
          "type": "uint256"
        }
      ],
      "payable": false,
      "stateMutability": "view",
      "type": "function"
    },
    {
      "constant": true,
      "inputs": [
        {
          "internalType": "address",
          "name": "account",
          "type": "address"
        }
      ],
      "name": "balanceOf",
      "outputs": [
        {
          "internalType": "uint256",
          "name": "",
          "type": "uint256"
        }
      ],
      "payable": false,
      "stateMutability": "view",
      "type": "function"
    },
    {
      "constant": true,
      "inputs": [
        {
          "internalType": "address",
          "name": "account",
          "type": "address"
        }
      ],
      "name": "isPauser",
      "outputs": [
        {
          "internalType": "bool",
          "name": "",
          "type": "bool"
        }
      ],
      "payable": false,
      "stateMutability": "view",
      "type": "function"
    },
    {
      "constant": false,
      "inputs": [],
      "name": "pause",
      "outputs": [],
      "payable": false,
      "stateMutability": "nonpayable",
      "type": "function"
    },
    {
      "constant": true,
      "inputs": [],
      "name": "paused",
      "outputs": [
        {
          "internalType": "bool",
          "name": "",
          "type": "bool"
        }
      ],
      "payable": false,
      "stateMutability": "view",
      "type": "function"
    },
    {
      "constant": false,
      "inputs": [],
      "name": "renouncePauser",
      "outputs": [],
      "payable": false,
      "stateMutability": "nonpayable",
      "type": "function"
    },
    {
      "constant": true,
      "inputs": [],
      "name": "totalSupply",
      "outputs": [
        {
          "internalType": "uint256",
          "name": "",
          "type": "uint256"
        }
      ],
      "payable": false,
      "stateMutability": "view",
      "type": "function"
    },
    {
      "constant": false,
      "inputs": [],
      "name": "unpause",
      "outputs": [],
      "payable": false,
      "stateMutability": "nonpayable",
      "type": "function"
    },
    {
      "constant": false,
      "inputs": [
        {
          "internalType": "address",
          "name": "sender",
          "type": "address"
        }
      ],
      "name": "initialize",
      "outputs": [],
      "payable": false,
      "stateMutability": "nonpayable",
      "type": "function"
    },
    {
      "constant": false,
      "inputs": [
        {
          "internalType": "address",
          "name": "to",
          "type": "address"
        },
        {
          "internalType": "uint256",
          "name": "value",
          "type": "uint256"
        }
      ],
      "name": "transfer",
      "outputs": [
        {
          "internalType": "bool",
          "name": "",
          "type": "bool"
        }
      ],
      "payable": false,
      "stateMutability": "nonpayable",
      "type": "function"
    },
    {
      "constant": false,
      "inputs": [
        {
          "internalType": "address",
          "name": "from",
          "type": "address"
        },
        {
          "internalType": "address",
          "name": "to",
          "type": "address"
        },
        {
          "internalType": "uint256",
          "name": "value",
          "type": "uint256"
        }
      ],
      "name": "transferFrom",
      "outputs": [
        {
          "internalType": "bool",
          "name": "",
          "type": "bool"
        }
      ],
      "payable": false,
      "stateMutability": "nonpayable",
      "type": "function"
    },
    {
      "constant": false,
      "inputs": [
        {
          "internalType": "address",
          "name": "spender",
          "type": "address"
        },
        {
          "internalType": "uint256",
          "name": "value",
          "type": "uint256"
        }
      ],
      "name": "approve",
      "outputs": [
        {
          "internalType": "bool",
          "name": "",
          "type": "bool"
        }
      ],
      "payable": false,
      "stateMutability": "nonpayable",
      "type": "function"
    },
    {
      "constant": false,
      "inputs": [
        {
          "internalType": "address",
          "name": "spender",
          "type": "address"
        },
        {
          "internalType": "uint256",
          "name": "addedValue",
          "type": "uint256"
        }
      ],
      "name": "increaseAllowance",
      "outputs": [
        {
          "internalType": "bool",
          "name": "",
          "type": "bool"
        }
      ],
      "payable": false,
      "stateMutability": "nonpayable",
      "type": "function"
    },
    {
      "constant": false,
      "inputs": [
        {
          "internalType": "address",
          "name": "spender",
          "type": "address"
        },
        {
          "internalType": "uint256",
          "name": "subtractedValue",
          "type": "uint256"
        }
      ],
      "name": "decreaseAllowance",
      "outputs": [
        {
          "internalType": "bool",
          "name": "",
          "type": "bool"
        }
      ],
      "payable": false,
      "stateMutability": "nonpayable",
      "type": "function"
    }
  ],
  "bytecode": "0x6080604052611229806100136000396000f3fe608060405234801561001057600080fd5b5060043610610112576000357c0100000000000000000000000000000000000000000000000000000000900480636ef8d66d116100b4578063a457c2d711610083578063a457c2d714610267578063a9059cbb14610293578063c4d66de8146102bf578063dd62ed3e146102e557610112565b80636ef8d66d1461020b57806370a082311461021357806382dc1ec4146102395780638456cb591461025f57610112565b806339509351116100f057806339509351146101a75780633f4ba83a146101d357806346fbf68e146101dd5780635c975abb1461020357610112565b8063095ea7b31461011757806318160ddd1461015757806323b872dd14610171575b600080fd5b6101436004803603604081101561012d57600080fd5b50600160a060020a038135169060200135610313565b604080519115158252519081900360200190f35b61015f610370565b60408051918252519081900360200190f35b6101436004803603606081101561018757600080fd5b50600160a060020a03813581169160208101359091169060400135610376565b610143600480360360408110156101bd57600080fd5b50600160a060020a0381351690602001356103d5565b6101db61042b565b005b610143600480360360208110156101f357600080fd5b5035600160a060020a0316610523565b61014361053c565b6101db610545565b61015f6004803603602081101561022957600080fd5b5035600160a060020a0316610557565b6101db6004803603602081101561024f57600080fd5b5035600160a060020a0316610572565b6101db6105c7565b6101436004803603604081101561027d57600080fd5b50600160a060020a03813516906020013561068f565b610143600480360360408110156102a957600080fd5b50600160a060020a0381351690602001356106e5565b6101db600480360360208110156102d557600080fd5b5035600160a060020a031661073b565b61015f600480360360408110156102fb57600080fd5b50600160a060020a03813581169160200135166107ea565b609b5460009060ff161561035f576040805160e560020a62461bcd028152602060048201526010602482015260008051602061118c833981519152604482015290519081900360640190fd5b6103698383610815565b9392505050565b60355490565b609b5460009060ff16156103c2576040805160e560020a62461bcd028152602060048201526010602482015260008051602061118c833981519152604482015290519081900360640190fd5b6103cd848484610832565b949350505050565b609b5460009060ff1615610421576040805160e560020a62461bcd028152602060048201526010602482015260008051602061118c833981519152604482015290519081900360640190fd5b61036983836108bf565b61043b610436610913565b610523565b6104795760405160e560020a62461bcd0281526004018080602001828103825260308152602001806110566030913960400191505060405180910390fd5b609b5460ff166104d3576040805160e560020a62461bcd02815260206004820152601460248201527f5061757361626c653a206e6f7420706175736564000000000000000000000000604482015290519081900360640190fd5b609b805460ff191690557f5db9ee0a495bf2e6ff9c91a7834c1ba4fdd244a5e8aa4e537bd38aeae4b073aa610506610913565b60408051600160a060020a039092168252519081900360200190a1565b600061053660688363ffffffff61091716565b92915050565b609b5460ff1690565b610555610550610913565b610981565b565b600160a060020a031660009081526033602052604090205490565b61057d610436610913565b6105bb5760405160e560020a62461bcd0281526004018080602001828103825260308152602001806110566030913960400191505060405180910390fd5b6105c4816109c9565b50565b6105d2610436610913565b6106105760405160e560020a62461bcd0281526004018080602001828103825260308152602001806110566030913960400191505060405180910390fd5b609b5460ff1615610659576040805160e560020a62461bcd028152602060048201526010602482015260008051602061118c833981519152604482015290519081900360640190fd5b609b805460ff191660011790557f62e78cea01bee320cd4e420270b5ea74000d11b0c9f74754ebdbfc544b05a258610506610913565b609b5460009060ff16156106db576040805160e560020a62461bcd028152602060048201526010602482015260008051602061118c833981519152604482015290519081900360640190fd5b6103698383610a11565b609b5460009060ff1615610731576040805160e560020a62461bcd028152602060048201526010602482015260008051602061118c833981519152604482015290519081900360640190fd5b6103698383610a7f565b600054610100900460ff16806107545750610754610a93565b80610762575060005460ff16155b6107a05760405160e560020a62461bcd02815260040180806020018281038252602e815260200180611139602e913960400191505060405180910390fd5b600054610100900460ff161580156107cb576000805460ff1961ff0019909116610100171660011790555b6107d482610a99565b80156107e6576000805461ff00191690555b5050565b600160a060020a03918216600090815260346020908152604080832093909416825291909152205490565b6000610829610822610913565b8484610b51565b50600192915050565b600061083f848484610c43565b6108b58461084b610913565b6108b0856040518060600160405280602881526020016110ef60289139600160a060020a038a16600090815260346020526040812090610889610913565b600160a060020a03168152602081019190915260400160002054919063ffffffff610da716565b610b51565b5060019392505050565b60006108296108cc610913565b846108b085603460006108dd610913565b600160a060020a03908116825260208083019390935260409182016000908120918c16815292529020549063ffffffff610e4116565b3390565b6000600160a060020a0382166109615760405160e560020a62461bcd0281526004018080602001828103825260228152602001806111176022913960400191505060405180910390fd5b50600160a060020a03166000908152602091909152604090205460ff1690565b61099260688263ffffffff610e9e16565b604051600160a060020a038216907fcd265ebaf09df2871cc7bd4133404a235ba12eff2041bb89d9c714a2621c7c7e90600090a250565b6109da60688263ffffffff610f0816565b604051600160a060020a038216907f6719d08c1888103bea251a4ed56406bd0c3e69723c8a1686e017e7bbe159b6f890600090a250565b6000610829610a1e610913565b846108b0856040518060600160405280602581526020016111d06025913960346000610a48610913565b600160a060020a03908116825260208083019390935260409182016000908120918d1681529252902054919063ffffffff610da716565b6000610829610a8c610913565b8484610c43565b303b1590565b600054610100900460ff1680610ab25750610ab2610a93565b80610ac0575060005460ff16155b610afe5760405160e560020a62461bcd02815260040180806020018281038252602e815260200180611139602e913960400191505060405180910390fd5b600054610100900460ff16158015610b29576000805460ff1961ff0019909116610100171660011790555b610b3282610f8c565b609b805460ff1916905580156107e6576000805461ff00191690555050565b600160a060020a038316610b995760405160e560020a62461bcd0281526004018080602001828103825260248152602001806111ac6024913960400191505060405180910390fd5b600160a060020a038216610be15760405160e560020a62461bcd0281526004018080602001828103825260228152602001806110866022913960400191505060405180910390fd5b600160a060020a03808416600081815260346020908152604080832094871680845294825291829020859055815185815291517f8c5be1e5ebec7d5bd14f71427d1e84f3dd0314c0f7b2291e5b200ac8c7c3b9259281900390910190a3505050565b600160a060020a038316610c8b5760405160e560020a62461bcd0281526004018080602001828103825260258152602001806111676025913960400191505060405180910390fd5b600160a060020a038216610cd35760405160e560020a62461bcd0281526004018080602001828103825260238152602001806110336023913960400191505060405180910390fd5b610d16816040518060600160405280602681526020016110a860269139600160a060020a038616600090815260336020526040902054919063ffffffff610da716565b600160a060020a038085166000908152603360205260408082209390935590841681522054610d4b908263ffffffff610e4116565b600160a060020a0380841660008181526033602090815260409182902094909455805185815290519193928716927fddf252ad1be2c89b69c2b068fc378daa952ba7f163c4a11628f55a4df523b3ef92918290030190a3505050565b60008184841115610e395760405160e560020a62461bcd0281526004018080602001828103825283818151815260200191508051906020019080838360005b83811015610dfe578181015183820152602001610de6565b50505050905090810190601f168015610e2b5780820380516001836020036101000a031916815260200191505b509250505060405180910390fd5b505050900390565b600082820183811015610369576040805160e560020a62461bcd02815260206004820152601b60248201527f536166654d6174683a206164646974696f6e206f766572666c6f770000000000604482015290519081900360640190fd5b610ea88282610917565b610ee65760405160e560020a62461bcd0281526004018080602001828103825260218152602001806110ce6021913960400191505060405180910390fd5b600160a060020a0316600090815260209190915260409020805460ff19169055565b610f128282610917565b15610f67576040805160e560020a62461bcd02815260206004820152601f60248201527f526f6c65733a206163636f756e7420616c72656164792068617320726f6c6500604482015290519081900360640190fd5b600160a060020a0316600090815260209190915260409020805460ff19166001179055565b600054610100900460ff1680610fa55750610fa5610a93565b80610fb3575060005460ff16155b610ff15760405160e560020a62461bcd02815260040180806020018281038252602e815260200180611139602e913960400191505060405180910390fd5b600054610100900460ff1615801561101c576000805460ff1961ff0019909116610100171660011790555b61102582610523565b6107d4576107d4826109c956fe45524332303a207472616e7366657220746f20746865207a65726f2061646472657373506175736572526f6c653a2063616c6c657220646f6573206e6f742068617665207468652050617573657220726f6c6545524332303a20617070726f766520746f20746865207a65726f206164647265737345524332303a207472616e7366657220616d6f756e7420657863656564732062616c616e6365526f6c65733a206163636f756e7420646f6573206e6f74206861766520726f6c6545524332303a207472616e7366657220616d6f756e74206578636565647320616c6c6f77616e6365526f6c65733a206163636f756e7420697320746865207a65726f2061646472657373436f6e747261637420696e7374616e63652068617320616c7265616479206265656e20696e697469616c697a656445524332303a207472616e736665722066726f6d20746865207a65726f20616464726573735061757361626c653a207061757365640000000000000000000000000000000045524332303a20617070726f76652066726f6d20746865207a65726f206164647265737345524332303a2064656372656173656420616c6c6f77616e63652062656c6f77207a65726fa265627a7a723158207e8d9cc54d91cd6d28b5c7c1fc1e25f587a24ee76ec0d1e14c3969d9c7c6cb0964736f6c63430005110032",
  "source": "pragma solidity ^0.5.0;\n\nimport \"@openzeppelin/upgrades/contracts/Initializable.sol\";\nimport \"./ERC20.sol\";\nimport \"../../lifecycle/Pausable.sol\";\n\n/**\n * @title Pausable token\n * @dev ERC20 with pausable transfers and allowances.\n *\n * Useful if you want to stop trades until the end of a crowdsale, or have\n * an emergency switch for freezing all token transfers in the event of a large\n * bug.\n */\ncontract ERC20Pausable is Initializable, ERC20, Pausable {\n    function initialize(address sender) public initializer {\n        Pausable.initialize(sender);\n    }\n\n    function transfer(address to, uint256 value) public whenNotPaused returns (bool) {\n        return super.transfer(to, value);\n    }\n\n    function transferFrom(address from, address to, uint256 value) public whenNotPaused returns (bool) {\n        return super.transferFrom(from, to, value);\n    }\n\n    function approve(address spender, uint256 value) public whenNotPaused returns (bool) {\n        return super.approve(spender, value);\n    }\n\n    function increaseAllowance(address spender, uint256 addedValue) public whenNotPaused returns (bool) {\n        return super.increaseAllowance(spender, addedValue);\n    }\n\n    function decreaseAllowance(address spender, uint256 subtractedValue) public whenNotPaused returns (bool) {\n        return super.decreaseAllowance(spender, subtractedValue);\n    }\n\n    uint256[50] private ______gap;\n}\n",
  "sourcePath": "@openzeppelin/contracts-ethereum-package/contracts/token/ERC20/ERC20Pausable.sol",
  "compiler": {
    "name": "solc",
    "version": "0.5.17+commit.d19bba13.Emscripten.clang"
  },
  "schemaVersion": "3.3.4",
  "updatedAt": "2021-04-21T09:34:25.373Z",
  "devdoc": {
    "details": "ERC20 with pausable transfers and allowances. * Useful if you want to stop trades until the end of a crowdsale, or have an emergency switch for freezing all token transfers in the event of a large bug.",
    "methods": {
      "allowance(address,address)": {
        "details": "See {IERC20-allowance}."
      },
      "balanceOf(address)": {
        "details": "See {IERC20-balanceOf}."
      },
      "pause()": {
        "details": "Called by a pauser to pause, triggers stopped state."
      },
      "paused()": {
        "details": "Returns true if the contract is paused, and false otherwise."
      },
      "totalSupply()": {
        "details": "See {IERC20-totalSupply}."
      },
      "unpause()": {
        "details": "Called by a pauser to unpause, returns to normal state."
      }
    },
    "title": "Pausable token"
  },
  "userdoc": {
    "methods": {}
  }
}