{
  "contractName": "MockAuction",
  "abi": [
    {
      "anonymous": false,
      "inputs": [
        {
          "indexed": false,
          "internalType": "uint256",
          "name": "timestamp",
          "type": "uint256"
        }
      ],
      "name": "AUCTION_CANCELED",
      "type": "event"
    },
    {
      "anonymous": false,
      "inputs": [
        {
          "indexed": false,
          "internalType": "uint256",
          "name": "timestamp",
          "type": "uint256"
        }
      ],
      "name": "AUCTION_STOPPED",
      "type": "event"
    },
    {
      "anonymous": false,
      "inputs": [
        {
          "indexed": true,
          "internalType": "address",
          "name": "returnTo",
          "type": "address"
        },
        {
          "indexed": false,
          "internalType": "uint256",
          "name": "amount",
          "type": "uint256"
        }
      ],
      "name": "BID_RETURNED",
      "type": "event"
    },
    {
      "anonymous": false,
      "inputs": [
        {
          "indexed": true,
          "internalType": "address",
          "name": "newBidder",
          "type": "address"
        },
        {
          "indexed": true,
          "internalType": "address",
          "name": "prevBidder",
          "type": "address"
        },
        {
          "indexed": false,
          "internalType": "uint256",
          "name": "newPrice",
          "type": "uint256"
        },
        {
          "indexed": false,
          "internalType": "uint256",
          "name": "prevPrice",
          "type": "uint256"
        }
      ],
      "name": "NEW_BID",
      "type": "event"
    },
    {
      "anonymous": false,
      "inputs": [
        {
          "indexed": true,
          "internalType": "address",
          "name": "previousOwner",
          "type": "address"
        },
        {
          "indexed": true,
          "internalType": "address",
          "name": "newOwner",
          "type": "address"
        }
      ],
      "name": "OwnershipTransferred",
      "type": "event"
    },
    {
      "anonymous": false,
      "inputs": [
        {
          "indexed": true,
          "internalType": "address",
          "name": "account",
          "type": "address"
        },
        {
          "indexed": false,
          "internalType": "uint256",
          "name": "amount",
          "type": "uint256"
        }
      ],
      "name": "WITHDRAWED",
      "type": "event"
    },
    {
      "constant": false,
      "inputs": [
        {
          "internalType": "uint256",
          "name": "maxValue",
          "type": "uint256"
        }
      ],
      "name": "bid",
      "outputs": [
        {
          "internalType": "uint256",
          "name": "actualBidPrice",
          "type": "uint256"
        }
      ],
      "payable": false,
      "stateMutability": "nonpayable",
      "type": "function"
    },
    {
      "constant": false,
      "inputs": [],
      "name": "cancel",
      "outputs": [
        {
          "internalType": "bool",
          "name": "",
          "type": "bool"
        }
      ],
      "payable": false,
      "stateMutability": "nonpayable",
      "type": "function"
    },
    {
      "constant": true,
      "inputs": [],
      "name": "currentBidder",
      "outputs": [
        {
          "internalType": "address",
          "name": "",
          "type": "address"
        }
      ],
      "payable": false,
      "stateMutability": "view",
      "type": "function"
    },
    {
      "constant": true,
      "inputs": [],
      "name": "currentPrice",
      "outputs": [
        {
          "internalType": "uint256",
          "name": "",
          "type": "uint256"
        }
      ],
      "payable": false,
      "stateMutability": "view",
      "type": "function"
    },
    {
      "constant": false,
      "inputs": [
        {
          "internalType": "address",
          "name": "sender",
          "type": "address"
        }
      ],
      "name": "initialize",
      "outputs": [],
      "payable": false,
      "stateMutability": "nonpayable",
      "type": "function"
    },
    {
      "constant": false,
      "inputs": [
        {
          "internalType": "uint256",
          "name": "_endTime",
          "type": "uint256"
        },
        {
          "internalType": "address",
          "name": "_coin",
          "type": "address"
        },
        {
          "internalType": "uint256",
          "name": "basePrice",
          "type": "uint256"
        },
        {
          "internalType": "uint256",
          "name": "_step",
          "type": "uint256"
        },
        {
          "internalType": "address payable",
          "name": "_owner",
          "type": "address"
        }
      ],
      "name": "initialize",
      "outputs": [],
      "payable": false,
      "stateMutability": "nonpayable",
      "type": "function"
    },
    {
      "constant": true,
      "inputs": [],
      "name": "isClosed",
      "outputs": [
        {
          "internalType": "bool",
          "name": "",
          "type": "bool"
        }
      ],
      "payable": false,
      "stateMutability": "view",
      "type": "function"
    },
    {
      "constant": true,
      "inputs": [],
      "name": "isOwner",
      "outputs": [
        {
          "internalType": "bool",
          "name": "",
          "type": "bool"
        }
      ],
      "payable": false,
      "stateMutability": "view",
      "type": "function"
    },
    {
      "constant": true,
      "inputs": [],
      "name": "owner",
      "outputs": [
        {
          "internalType": "address",
          "name": "",
          "type": "address"
        }
      ],
      "payable": false,
      "stateMutability": "view",
      "type": "function"
    },
    {
      "constant": true,
      "inputs": [],
      "name": "remainTime",
      "outputs": [
        {
          "internalType": "uint256",
          "name": "remainSeconds",
          "type": "uint256"
        }
      ],
      "payable": false,
      "stateMutability": "view",
      "type": "function"
    },
    {
      "constant": false,
      "inputs": [],
      "name": "renounceOwnership",
      "outputs": [],
      "payable": false,
      "stateMutability": "nonpayable",
      "type": "function"
    },
    {
      "constant": false,
      "inputs": [],
      "name": "stop",
      "outputs": [
        {
          "internalType": "bool",
          "name": "",
          "type": "bool"
        }
      ],
      "payable": false,
      "stateMutability": "nonpayable",
      "type": "function"
    },
    {
      "constant": false,
      "inputs": [
        {
          "internalType": "address",
          "name": "newOwner",
          "type": "address"
        }
      ],
      "name": "transferOwnership",
      "outputs": [],
      "payable": false,
      "stateMutability": "nonpayable",
      "type": "function"
    },
    {
      "constant": false,
      "inputs": [],
      "name": "withdraw",
      "outputs": [
        {
          "internalType": "bool",
          "name": "",
          "type": "bool"
        }
      ],
      "payable": false,
      "stateMutability": "nonpayable",
      "type": "function"
    },
    {
      "constant": false,
      "inputs": [
        {
          "internalType": "uint256",
          "name": "to",
          "type": "uint256"
        }
      ],
      "name": "setTime",
      "outputs": [],
      "payable": false,
      "stateMutability": "nonpayable",
      "type": "function"
    }
  ],
  "bytecode": "0x6080604052611064806100136000396000f3fe608060405234801561001057600080fd5b5060043610610112576000357c0100000000000000000000000000000000000000000000000000000000900480638f32d59b116100b4578063cd3d868711610083578063cd3d8687146101fb578063d33db6971461023b578063ea8a1af014610243578063f2fde38b1461024b57610112565b80638f32d59b146101bd5780639d1b464a146101c5578063c2b6b58c146101cd578063c4d66de8146101d557610112565b8063454a2ab3116100f0578063454a2ab31461015a5780634a7e130e14610189578063715018a6146101915780638da5cb5b1461019957610112565b806307da68f5146101175780633beb26c4146101335780633ccfd60b14610152575b600080fd5b61011f610271565b604080519115158252519081900360200190f35b6101506004803603602081101561014957600080fd5b5035610367565b005b61011f61036c565b6101776004803603602081101561017057600080fd5b503561053c565b60408051918252519081900360200190f35b610177610796565b6101506107d0565b6101a1610871565b60408051600160a060020a039092168252519081900360200190f35b61011f610880565b6101776108a6565b61011f6108ac565b610150600480360360208110156101eb57600080fd5b5035600160a060020a03166108c9565b610150600480360360a081101561021157600080fd5b50803590600160a060020a03602082013581169160408101359160608201359160800135166109cb565b6101a1610aba565b61011f610ac9565b6101506004803603602081101561026157600080fd5b5035600160a060020a0316610bc8565b600061027b610880565b6102bd576040805160e560020a62461bcd0281526020600482018190526024820152600080516020610f6f833981519152604482015290519081900360640190fd5b6102c56108ac565b1561031a576040805160e560020a62461bcd02815260206004820152601d60248201527f5468652061756374696f6e20697320616c726561647920636c6f736564000000604482015290519081900360640190fd5b606a805460ff191660011790557f90831a78827e73c294c4cdfc651a4f900b0b951b605a6431f534d6f46a076588610350610c1e565b60408051918252519081900360200190a150600190565b606b55565b6000610376610880565b6103b8576040805160e560020a62461bcd0281526020600482018190526024820152600080516020610f6f833981519152604482015290519081900360640190fd5b6103c06108ac565b6103fe5760405160e560020a62461bcd028152600401808060200182810382526036815260200180610f396036913960400191505060405180910390fd5b606654600160a060020a031661045e576040805160e560020a62461bcd02815260206004820152601a60248201527f4e6f2062696464696e677320746f207468652061756374696f6e000000000000604482015290519081900360640190fd5b606a54606754604080517fa9059cbb000000000000000000000000000000000000000000000000000000008152336004820152602481019290925251610100909204600160a060020a03169163a9059cbb916044808201926020929091908290030181600087803b1580156104d257600080fd5b505af11580156104e6573d6000803e3d6000fd5b505050506040513d60208110156104fc57600080fd5b5050606754604080519182525133917fcccb996f8a0b4acd4f6f6f6d311f97341abf0a3ca926ec841f7601d4f956efb6919081900360200190a250600190565b60006105466108ac565b1561059b576040805160e560020a62461bcd02815260206004820152601560248201527f5468652061756374696f6e20697320636c6f7365640000000000000000000000604482015290519081900360640190fd5b606654600160a060020a03163314156105e85760405160e560020a62461bcd02815260040180806020018281038252602c815260200180611004602c913960400191505060405180910390fd5b606654600090600160a060020a031615610616576068546067546106119163ffffffff610c2416565b61061a565b6067545b90508215806106295750808310155b6106675760405160e560020a62461bcd028152600401808060200182810382526026815260200180610fde6026913960400191505060405180910390fd5b6067805460668054928490553373ffffffffffffffffffffffffffffffffffffffff1984168117909155606a54604080517f23b872dd000000000000000000000000000000000000000000000000000000008152600481019390935230602484015260448301869052519293600160a060020a039081169361010090920416916323b872dd9160648083019260209291908290030181600087803b15801561070e57600080fd5b505af1158015610722573d6000803e3d6000fd5b505050506040513d602081101561073857600080fd5b5061074590508183610c88565b60408051848152602081018490528151600160a060020a0384169233927f5943480761189bed6b24fe892d33e664891bb137b6c8692b63769a2341799167929081900390910190a350909392505050565b60006069546107a3610c1e565b10156107c8576107c36107b4610c1e565b6069549063ffffffff610d7b16565b6107cb565b60005b905090565b6107d8610880565b61081a576040805160e560020a62461bcd0281526020600482018190526024820152600080516020610f6f833981519152604482015290519081900360640190fd5b603354604051600091600160a060020a0316907f8be0079c531659141344cd1fd0a4f28419497f9722a3daafe3b4186f6b6457e0908390a36033805473ffffffffffffffffffffffffffffffffffffffff19169055565b603354600160a060020a031690565b603354600090600160a060020a0316610897610dbd565b600160a060020a031614905090565b60675490565b606a5460009060ff16806107cb57506108c3610796565b15905090565b600054610100900460ff16806108e257506108e2610dc1565b806108f0575060005460ff16155b61092e5760405160e560020a62461bcd02815260040180806020018281038252602e815260200180610f8f602e913960400191505060405180910390fd5b600054610100900460ff16158015610959576000805460ff1961ff0019909116610100171660011790555b6033805473ffffffffffffffffffffffffffffffffffffffff1916600160a060020a0384811691909117918290556040519116906000907f8be0079c531659141344cd1fd0a4f28419497f9722a3daafe3b4186f6b6457e0908290a380156109c7576000805461ff00191690555b5050565b600054610100900460ff16806109e457506109e4610dc1565b806109f2575060005460ff16155b610a305760405160e560020a62461bcd02815260040180806020018281038252602e815260200180610f8f602e913960400191505060405180910390fd5b600054610100900460ff16158015610a5b576000805460ff1961ff0019909116610100171660011790555b610a64826108c9565b606784905560688390556069869055606a805474ffffffffffffffffffffffffffffffffffffffff001916610100600160a060020a038816021790558015610ab2576000805461ff00191690555b505050505050565b606654600160a060020a031690565b6000610ad3610880565b610b15576040805160e560020a62461bcd0281526020600482018190526024820152600080516020610f6f833981519152604482015290519081900360640190fd5b610b1d6108ac565b15610b5c5760405160e560020a62461bcd028152600401808060200182810382526021815260200180610fbd6021913960400191505060405180910390fd5b606654606754610b7591600160a060020a031690610c88565b6066805473ffffffffffffffffffffffffffffffffffffffff19169055606a805460ff191660011790557f19954fcc53548511459d25d3fbb956e5e6441d33a0d67767044c3cfef7524a85610350610c1e565b610bd0610880565b610c12576040805160e560020a62461bcd0281526020600482018190526024820152600080516020610f6f833981519152604482015290519081900360640190fd5b610c1b81610dc7565b50565b606b5490565b600082820183811015610c81576040805160e560020a62461bcd02815260206004820152601b60248201527f536166654d6174683a206164646974696f6e206f766572666c6f770000000000604482015290519081900360640190fd5b9392505050565b600160a060020a038216156109c757606a54604080517fa9059cbb000000000000000000000000000000000000000000000000000000008152600160a060020a0385811660048301526024820185905291516101009093049091169163a9059cbb916044808201926020929091908290030181600087803b158015610d0c57600080fd5b505af1158015610d20573d6000803e3d6000fd5b505050506040513d6020811015610d3657600080fd5b5050604080518281529051600160a060020a038416917fe6b64f96985984afb23f29b4cd0130effacea6a3cf7e1232cefa35122d880e11919081900360200190a25050565b6000610c8183836040518060400160405280601e81526020017f536166654d6174683a207375627472616374696f6e206f766572666c6f770000815250610e78565b3390565b303b1590565b600160a060020a038116610e0f5760405160e560020a62461bcd028152600401808060200182810382526026815260200180610f136026913960400191505060405180910390fd5b603354604051600160a060020a038084169216907f8be0079c531659141344cd1fd0a4f28419497f9722a3daafe3b4186f6b6457e090600090a36033805473ffffffffffffffffffffffffffffffffffffffff1916600160a060020a0392909216919091179055565b60008184841115610f0a5760405160e560020a62461bcd0281526004018080602001828103825283818151815260200191508051906020019080838360005b83811015610ecf578181015183820152602001610eb7565b50505050905090810190601f168015610efc5780820380516001836020036101000a031916815260200191505b509250505060405180910390fd5b50505090039056fe4f776e61626c653a206e6577206f776e657220697320746865207a65726f20616464726573734f776e65722063616e206f6e6c79207769746864726177206173736574732061667465722061756374696f6e20697320636c6f7365644f776e61626c653a2063616c6c6572206973206e6f7420746865206f776e6572436f6e747261637420696e7374616e63652068617320616c7265616479206265656e20696e697469616c697a6564556e61626c6520746f2063616e63656c206120636c6f7365642061756374696f6e43757272656e742062696464696e672070726963652065786365656420616c6c6f77616e636543757272656e742068696768657374206269642069732066726f6d207468652073616d65206163636f756e74a265627a7a723158203ab0bdcc4211c1959d1a2406fde3efb8d7c71e5f9c8fa64a9293d7772ff4946f64736f6c63430005110032",
  "source": "pragma solidity ^0.5.17;\n\nimport '../Auction.sol';\n\ncontract MockAuction is Auction {\n    uint256 private timestamp;\n\n    function getTime() internal view returns(uint256) {\n        return timestamp;\n    }\n\n    function setTime(uint256 to) public {\n        timestamp = to;\n    }\n}\n",
  "sourcePath": "/home/runner/work/auction-template/auction-template/contracts/mocks/MockAuction.sol",
  "compiler": {
    "name": "solc",
    "version": "0.5.17+commit.d19bba13.Emscripten.clang"
  },
  "schemaVersion": "3.3.4",
  "updatedAt": "2021-04-21T09:29:09.034Z",
  "devdoc": {
    "methods": {
      "bid(uint256)": {
        "details": "Every bidding increase by the \"step\" value. Users might bid over the price they saw in the UI.Set the maxValue to 0 presents no price limit restriction."
      },
      "initialize(address)": {
        "details": "Initializes the contract setting the deployer as the initial owner."
      },
      "isOwner()": {
        "details": "Returns true if the caller is the current owner."
      },
      "owner()": {
        "details": "Returns the address of the current owner."
      },
      "renounceOwnership()": {
        "details": "Leaves the contract without owner. It will not be possible to call `onlyOwner` functions anymore. Can only be called by the current owner.     * > Note: Renouncing ownership will leave the contract without an owner, thereby removing any functionality that is only available to the owner."
      },
      "transferOwnership(address)": {
        "details": "Transfers ownership of the contract to a new account (`newOwner`). Can only be called by the current owner."
      }
    }
  },
  "userdoc": {
    "methods": {
      "cancel()": {
        "notice": "Cancel the auction, contract-holded TT-ETH will return to the last bidder. "
      },
      "currentPrice()": {
        "notice": "Current bidding price, scaled by 1e18 "
      },
      "stop()": {
        "notice": "Force the auction stop. "
      },
      "withdraw()": {
        "notice": "Owner claim TT-ETH after auction stopped.  "
      }
    }
  }
}