{
  "contractName": "StandaloneERC20",
  "abi": [
    {
      "anonymous": false,
      "inputs": [
        {
          "indexed": true,
          "internalType": "address",
          "name": "owner",
          "type": "address"
        },
        {
          "indexed": true,
          "internalType": "address",
          "name": "spender",
          "type": "address"
        },
        {
          "indexed": false,
          "internalType": "uint256",
          "name": "value",
          "type": "uint256"
        }
      ],
      "name": "Approval",
      "type": "event"
    },
    {
      "anonymous": false,
      "inputs": [
        {
          "indexed": true,
          "internalType": "address",
          "name": "account",
          "type": "address"
        }
      ],
      "name": "MinterAdded",
      "type": "event"
    },
    {
      "anonymous": false,
      "inputs": [
        {
          "indexed": true,
          "internalType": "address",
          "name": "account",
          "type": "address"
        }
      ],
      "name": "MinterRemoved",
      "type": "event"
    },
    {
      "anonymous": false,
      "inputs": [
        {
          "indexed": false,
          "internalType": "address",
          "name": "account",
          "type": "address"
        }
      ],
      "name": "Paused",
      "type": "event"
    },
    {
      "anonymous": false,
      "inputs": [
        {
          "indexed": true,
          "internalType": "address",
          "name": "account",
          "type": "address"
        }
      ],
      "name": "PauserAdded",
      "type": "event"
    },
    {
      "anonymous": false,
      "inputs": [
        {
          "indexed": true,
          "internalType": "address",
          "name": "account",
          "type": "address"
        }
      ],
      "name": "PauserRemoved",
      "type": "event"
    },
    {
      "anonymous": false,
      "inputs": [
        {
          "indexed": true,
          "internalType": "address",
          "name": "from",
          "type": "address"
        },
        {
          "indexed": true,
          "internalType": "address",
          "name": "to",
          "type": "address"
        },
        {
          "indexed": false,
          "internalType": "uint256",
          "name": "value",
          "type": "uint256"
        }
      ],
      "name": "Transfer",
      "type": "event"
    },
    {
      "anonymous": false,
      "inputs": [
        {
          "indexed": false,
          "internalType": "address",
          "name": "account",
          "type": "address"
        }
      ],
      "name": "Unpaused",
      "type": "event"
    },
    {
      "constant": false,
      "inputs": [
        {
          "internalType": "address",
          "name": "account",
          "type": "address"
        }
      ],
      "name": "addMinter",
      "outputs": [],
      "payable": false,
      "stateMutability": "nonpayable",
      "type": "function"
    },
    {
      "constant": false,
      "inputs": [
        {
          "internalType": "address",
          "name": "account",
          "type": "address"
        }
      ],
      "name": "addPauser",
      "outputs": [],
      "payable": false,
      "stateMutability": "nonpayable",
      "type": "function"
    },
    {
      "constant": true,
      "inputs": [
        {
          "internalType": "address",
          "name": "owner",
          "type": "address"
        },
        {
          "internalType": "address",
          "name": "spender",
          "type": "address"
        }
      ],
      "name": "allowance",
      "outputs": [
        {
          "internalType": "uint256",
          "name": "",
          "type": "uint256"
        }
      ],
      "payable": false,
      "stateMutability": "view",
      "type": "function"
    },
    {
      "constant": false,
      "inputs": [
        {
          "internalType": "address",
          "name": "spender",
          "type": "address"
        },
        {
          "internalType": "uint256",
          "name": "value",
          "type": "uint256"
        }
      ],
      "name": "approve",
      "outputs": [
        {
          "internalType": "bool",
          "name": "",
          "type": "bool"
        }
      ],
      "payable": false,
      "stateMutability": "nonpayable",
      "type": "function"
    },
    {
      "constant": true,
      "inputs": [
        {
          "internalType": "address",
          "name": "account",
          "type": "address"
        }
      ],
      "name": "balanceOf",
      "outputs": [
        {
          "internalType": "uint256",
          "name": "",
          "type": "uint256"
        }
      ],
      "payable": false,
      "stateMutability": "view",
      "type": "function"
    },
    {
      "constant": true,
      "inputs": [],
      "name": "decimals",
      "outputs": [
        {
          "internalType": "uint8",
          "name": "",
          "type": "uint8"
        }
      ],
      "payable": false,
      "stateMutability": "view",
      "type": "function"
    },
    {
      "constant": false,
      "inputs": [
        {
          "internalType": "address",
          "name": "spender",
          "type": "address"
        },
        {
          "internalType": "uint256",
          "name": "subtractedValue",
          "type": "uint256"
        }
      ],
      "name": "decreaseAllowance",
      "outputs": [
        {
          "internalType": "bool",
          "name": "",
          "type": "bool"
        }
      ],
      "payable": false,
      "stateMutability": "nonpayable",
      "type": "function"
    },
    {
      "constant": false,
      "inputs": [
        {
          "internalType": "address",
          "name": "spender",
          "type": "address"
        },
        {
          "internalType": "uint256",
          "name": "addedValue",
          "type": "uint256"
        }
      ],
      "name": "increaseAllowance",
      "outputs": [
        {
          "internalType": "bool",
          "name": "",
          "type": "bool"
        }
      ],
      "payable": false,
      "stateMutability": "nonpayable",
      "type": "function"
    },
    {
      "constant": true,
      "inputs": [
        {
          "internalType": "address",
          "name": "account",
          "type": "address"
        }
      ],
      "name": "isMinter",
      "outputs": [
        {
          "internalType": "bool",
          "name": "",
          "type": "bool"
        }
      ],
      "payable": false,
      "stateMutability": "view",
      "type": "function"
    },
    {
      "constant": true,
      "inputs": [
        {
          "internalType": "address",
          "name": "account",
          "type": "address"
        }
      ],
      "name": "isPauser",
      "outputs": [
        {
          "internalType": "bool",
          "name": "",
          "type": "bool"
        }
      ],
      "payable": false,
      "stateMutability": "view",
      "type": "function"
    },
    {
      "constant": false,
      "inputs": [
        {
          "internalType": "address",
          "name": "account",
          "type": "address"
        },
        {
          "internalType": "uint256",
          "name": "amount",
          "type": "uint256"
        }
      ],
      "name": "mint",
      "outputs": [
        {
          "internalType": "bool",
          "name": "",
          "type": "bool"
        }
      ],
      "payable": false,
      "stateMutability": "nonpayable",
      "type": "function"
    },
    {
      "constant": true,
      "inputs": [],
      "name": "name",
      "outputs": [
        {
          "internalType": "string",
          "name": "",
          "type": "string"
        }
      ],
      "payable": false,
      "stateMutability": "view",
      "type": "function"
    },
    {
      "constant": false,
      "inputs": [],
      "name": "pause",
      "outputs": [],
      "payable": false,
      "stateMutability": "nonpayable",
      "type": "function"
    },
    {
      "constant": true,
      "inputs": [],
      "name": "paused",
      "outputs": [
        {
          "internalType": "bool",
          "name": "",
          "type": "bool"
        }
      ],
      "payable": false,
      "stateMutability": "view",
      "type": "function"
    },
    {
      "constant": false,
      "inputs": [],
      "name": "renounceMinter",
      "outputs": [],
      "payable": false,
      "stateMutability": "nonpayable",
      "type": "function"
    },
    {
      "constant": false,
      "inputs": [],
      "name": "renouncePauser",
      "outputs": [],
      "payable": false,
      "stateMutability": "nonpayable",
      "type": "function"
    },
    {
      "constant": true,
      "inputs": [],
      "name": "symbol",
      "outputs": [
        {
          "internalType": "string",
          "name": "",
          "type": "string"
        }
      ],
      "payable": false,
      "stateMutability": "view",
      "type": "function"
    },
    {
      "constant": true,
      "inputs": [],
      "name": "totalSupply",
      "outputs": [
        {
          "internalType": "uint256",
          "name": "",
          "type": "uint256"
        }
      ],
      "payable": false,
      "stateMutability": "view",
      "type": "function"
    },
    {
      "constant": false,
      "inputs": [
        {
          "internalType": "address",
          "name": "to",
          "type": "address"
        },
        {
          "internalType": "uint256",
          "name": "value",
          "type": "uint256"
        }
      ],
      "name": "transfer",
      "outputs": [
        {
          "internalType": "bool",
          "name": "",
          "type": "bool"
        }
      ],
      "payable": false,
      "stateMutability": "nonpayable",
      "type": "function"
    },
    {
      "constant": false,
      "inputs": [
        {
          "internalType": "address",
          "name": "from",
          "type": "address"
        },
        {
          "internalType": "address",
          "name": "to",
          "type": "address"
        },
        {
          "internalType": "uint256",
          "name": "value",
          "type": "uint256"
        }
      ],
      "name": "transferFrom",
      "outputs": [
        {
          "internalType": "bool",
          "name": "",
          "type": "bool"
        }
      ],
      "payable": false,
      "stateMutability": "nonpayable",
      "type": "function"
    },
    {
      "constant": false,
      "inputs": [],
      "name": "unpause",
      "outputs": [],
      "payable": false,
      "stateMutability": "nonpayable",
      "type": "function"
    },
    {
      "constant": false,
      "inputs": [
        {
          "internalType": "string",
          "name": "name",
          "type": "string"
        },
        {
          "internalType": "string",
          "name": "symbol",
          "type": "string"
        },
        {
          "internalType": "uint8",
          "name": "decimals",
          "type": "uint8"
        }
      ],
      "name": "initialize",
      "outputs": [],
      "payable": false,
      "stateMutability": "nonpayable",
      "type": "function"
    },
    {
      "constant": false,
      "inputs": [
        {
          "internalType": "string",
          "name": "name",
          "type": "string"
        },
        {
          "internalType": "string",
          "name": "symbol",
          "type": "string"
        },
        {
          "internalType": "uint8",
          "name": "decimals",
          "type": "uint8"
        },
        {
          "internalType": "address[]",
          "name": "minters",
          "type": "address[]"
        },
        {
          "internalType": "address[]",
          "name": "pausers",
          "type": "address[]"
        }
      ],
      "name": "initialize",
      "outputs": [],
      "payable": false,
      "stateMutability": "nonpayable",
      "type": "function"
    },
    {
      "constant": false,
      "inputs": [
        {
          "internalType": "string",
          "name": "name",
          "type": "string"
        },
        {
          "internalType": "string",
          "name": "symbol",
          "type": "string"
        },
        {
          "internalType": "uint8",
          "name": "decimals",
          "type": "uint8"
        },
        {
          "internalType": "uint256",
          "name": "initialSupply",
          "type": "uint256"
        },
        {
          "internalType": "address",
          "name": "initialHolder",
          "type": "address"
        },
        {
          "internalType": "address[]",
          "name": "minters",
          "type": "address[]"
        },
        {
          "internalType": "address[]",
          "name": "pausers",
          "type": "address[]"
        }
      ],
      "name": "initialize",
      "outputs": [],
      "payable": false,
      "stateMutability": "nonpayable",
      "type": "function"
    },
    {
      "constant": false,
      "inputs": [
        {
          "internalType": "address",
          "name": "sender",
          "type": "address"
        }
      ],
      "name": "initialize",
      "outputs": [],
      "payable": false,
      "stateMutability": "nonpayable",
      "type": "function"
    }
  ],
  "bytecode": "0x6080604052612240806100136000396000f3fe608060405234801561001057600080fd5b5060043610610190576000357c0100000000000000000000000000000000000000000000000000000000900480635c975abb116100fb578063983b2d56116100b4578063a9059cbb1161008e578063a9059cbb146109d3578063aa271e1a146109ff578063c4d66de814610a25578063dd62ed3e14610a4b57610190565b8063983b2d5614610979578063986502751461099f578063a457c2d7146109a757610190565b80635c975abb1461090d5780636ef8d66d1461091557806370a082311461091d57806382dc1ec4146109435780638456cb591461096957806395d89b411461097157610190565b8063313ce5671161014d578063313ce5671461061657806339509351146106345780633f4ba83a1461066057806340c10f191461066857806346fbf68e1461069457806348be01c6146106ba57610190565b806306fdde0314610195578063095ea7b3146102125780631624f6c61461025257806318160ddd1461038657806323b872dd146103a057806331392b4a146103d6575b600080fd5b61019d610a79565b6040805160208082528351818301528351919283929083019185019080838360005b838110156101d75781810151838201526020016101bf565b50505050905090810190601f1680156102045780820380516001836020036101000a031916815260200191505b509250505060405180910390f35b61023e6004803603604081101561022857600080fd5b50600160a060020a038135169060200135610b10565b604080519115158252519081900360200190f35b6103846004803603606081101561026857600080fd5b81019060208101813564010000000081111561028357600080fd5b82018360208201111561029557600080fd5b803590602001918460018302840111640100000000831117156102b757600080fd5b91908080601f016020809104026020016040519081016040528093929190818152602001838380828437600092019190915250929594936020810193503591505064010000000081111561030a57600080fd5b82018360208201111561031c57600080fd5b8035906020019184600183028401116401000000008311171561033e57600080fd5b91908080601f0160208091040260200160405190810160405280939291908181526020018383808284376000920191909152509295505050903560ff169150610b6e9050565b005b61038e610c4d565b60408051918252519081900360200190f35b61023e600480360360608110156103b657600080fd5b50600160a060020a03813581169160208101359091169060400135610c53565b610384600480360360a08110156103ec57600080fd5b81019060208101813564010000000081111561040757600080fd5b82018360208201111561041957600080fd5b8035906020019184600183028401116401000000008311171561043b57600080fd5b91908080601f016020809104026020016040519081016040528093929190818152602001838380828437600092019190915250929594936020810193503591505064010000000081111561048e57600080fd5b8201836020820111156104a057600080fd5b803590602001918460018302840111640100000000831117156104c257600080fd5b91908080601f016020809104026020016040519081016040528093929190818152602001838380828437600092019190915250929560ff85351695909490935060408101925060200135905064010000000081111561052057600080fd5b82018360208201111561053257600080fd5b8035906020019184602083028401116401000000008311171561055457600080fd5b91908080602002602001604051908101604052809392919081815260200183836020028082843760009201919091525092959493602081019350359150506401000000008111156105a457600080fd5b8201836020820111156105b657600080fd5b803590602001918460208302840111640100000000831117156105d857600080fd5b919080806020026020016040519081016040528093929190818152602001838360200280828437600092019190915250929550610cb3945050505050565b61061e610dee565b6040805160ff9092168252519081900360200190f35b61023e6004803603604081101561064a57600080fd5b50600160a060020a038135169060200135610df7565b610384610e4e565b61023e6004803603604081101561067e57600080fd5b50600160a060020a038135169060200135610f48565b61023e600480360360208110156106aa57600080fd5b5035600160a060020a0316610fab565b610384600480360360e08110156106d057600080fd5b8101906020810181356401000000008111156106eb57600080fd5b8201836020820111156106fd57600080fd5b8035906020019184600183028401116401000000008311171561071f57600080fd5b91908080601f016020809104026020016040519081016040528093929190818152602001838380828437600092019190915250929594936020810193503591505064010000000081111561077257600080fd5b82018360208201111561078457600080fd5b803590602001918460018302840111640100000000831117156107a657600080fd5b91908080601f016020809104026020016040519081016040528093929190818152602001838380828437600092019190915250929560ff85351695602086013595600160a060020a036040820135169550919350915060808101906060013564010000000081111561081757600080fd5b82018360208201111561082957600080fd5b8035906020019184602083028401116401000000008311171561084b57600080fd5b919080806020026020016040519081016040528093929190818152602001838360200280828437600092019190915250929594936020810193503591505064010000000081111561089b57600080fd5b8201836020820111156108ad57600080fd5b803590602001918460208302840111640100000000831117156108cf57600080fd5b919080806020026020016040519081016040528093929190818152602001838360200280828437600092019190915250929550610fc5945050505050565b61023e6110f2565b6103846110fc565b61038e6004803603602081101561093357600080fd5b5035600160a060020a031661110e565b6103846004803603602081101561095957600080fd5b5035600160a060020a0316611129565b61038461117e565b61019d611248565b6103846004803603602081101561098f57600080fd5b5035600160a060020a03166112a9565b6103846112fb565b61023e600480360360408110156109bd57600080fd5b50600160a060020a03813516906020013561130b565b61023e600480360360408110156109e957600080fd5b50600160a060020a038135169060200135611362565b61023e60048036036020811015610a1557600080fd5b5035600160a060020a03166113b9565b61038460048036036020811015610a3b57600080fd5b5035600160a060020a03166113cc565b61038e60048036036040811015610a6157600080fd5b50600160a060020a038135811691602001351661147b565b60338054604080516020601f6002600019610100600188161502019095169490940493840181900481028201810190925282815260609390929091830182828015610b055780601f10610ada57610100808354040283529160200191610b05565b820191906000526020600020905b815481529060010190602001808311610ae857829003601f168201915b505050505090505b90565b6101355460009060ff1615610b5d576040805160e560020a62461bcd02815260206004820152601060248201526000805160206121a3833981519152604482015290519081900360640190fd5b610b6783836114a6565b9392505050565b600054610100900460ff1680610b875750610b876114ba565b80610b95575060005460ff16155b610bd35760405160e560020a62461bcd02815260040180806020018281038252602e815260200180612150602e913960400191505060405180910390fd5b600054610100900460ff16158015610bfe576000805460ff1961ff0019909116610100171660011790555b8351610c11906033906020870190611f81565b508251610c25906034906020860190611f81565b506035805460ff191660ff84161790558015610c47576000805461ff00191690555b50505050565b606a5490565b6101355460009060ff1615610ca0576040805160e560020a62461bcd02815260206004820152601060248201526000805160206121a3833981519152604482015290519081900360640190fd5b610cab8484846114c0565b949350505050565b600054610100900460ff1680610ccc5750610ccc6114ba565b80610cda575060005460ff16155b610d185760405160e560020a62461bcd02815260040180806020018281038252602e815260200180612150602e913960400191505060405180910390fd5b600054610100900460ff16158015610d43576000805460ff1961ff0019909116610100171660011790555b610d4e868686610b6e565b610d573061154d565b610d60306115e6565b610d69306113cc565b610d723061162e565b60005b8351811015610da257610d9a848281518110610d8d57fe5b6020026020010151611677565b600101610d75565b5060005b8251811015610dd357610dcb838281518110610dbe57fe5b60200260200101516116bf565b600101610da6565b508015610de6576000805461ff00191690555b505050505050565b60355460ff1690565b6101355460009060ff1615610e44576040805160e560020a62461bcd02815260206004820152601060248201526000805160206121a3833981519152604482015290519081900360640190fd5b610b678383611708565b610e5e610e5961175c565b610fab565b610e9c5760405160e560020a62461bcd02815260040180806020018281038252603081526020018061203d6030913960400191505060405180910390fd5b6101355460ff16610ef7576040805160e560020a62461bcd02815260206004820152601460248201527f5061757361626c653a206e6f7420706175736564000000000000000000000000604482015290519081900360640190fd5b610135805460ff191690557f5db9ee0a495bf2e6ff9c91a7834c1ba4fdd244a5e8aa4e537bd38aeae4b073aa610f2b61175c565b60408051600160a060020a039092168252519081900360200190a1565b6000610f5a610f5561175c565b6113b9565b610f985760405160e560020a62461bcd0281526004018080602001828103825260308152602001806120b56030913960400191505060405180910390fd5b610fa28383611760565b50600192915050565b6000610fbf6101028363ffffffff61185516565b92915050565b600054610100900460ff1680610fde5750610fde6114ba565b80610fec575060005460ff16155b61102a5760405160e560020a62461bcd02815260040180806020018281038252602e815260200180612150602e913960400191505060405180910390fd5b600054610100900460ff16158015611055576000805460ff1961ff0019909116610100171660011790555b611060888888610b6e565b61106a8486611760565b6110733061154d565b61107c306115e6565b611085306113cc565b61108e3061162e565b60005b83518110156110b1576110a9848281518110610d8d57fe5b600101611091565b5060005b82518110156110d5576110cd838281518110610dbe57fe5b6001016110b5565b5080156110e8576000805461ff00191690555b5050505050505050565b6101355460ff1690565b61110c61110761175c565b61162e565b565b600160a060020a031660009081526068602052604090205490565b611134610e5961175c565b6111725760405160e560020a62461bcd02815260040180806020018281038252603081526020018061203d6030913960400191505060405180910390fd5b61117b816116bf565b50565b611189610e5961175c565b6111c75760405160e560020a62461bcd02815260040180806020018281038252603081526020018061203d6030913960400191505060405180910390fd5b6101355460ff1615611211576040805160e560020a62461bcd02815260206004820152601060248201526000805160206121a3833981519152604482015290519081900360640190fd5b610135805460ff191660011790557f62e78cea01bee320cd4e420270b5ea74000d11b0c9f74754ebdbfc544b05a258610f2b61175c565b60348054604080516020601f6002600019610100600188161502019095169490940493840181900481028201810190925282815260609390929091830182828015610b055780601f10610ada57610100808354040283529160200191610b05565b6112b4610f5561175c565b6112f25760405160e560020a62461bcd0281526004018080602001828103825260308152602001806120b56030913960400191505060405180910390fd5b61117b81611677565b61110c61130661175c565b6115e6565b6101355460009060ff1615611358576040805160e560020a62461bcd02815260206004820152601060248201526000805160206121a3833981519152604482015290519081900360640190fd5b610b6783836118bf565b6101355460009060ff16156113af576040805160e560020a62461bcd02815260206004820152601060248201526000805160206121a3833981519152604482015290519081900360640190fd5b610b67838361192d565b6000610fbf609d8363ffffffff61185516565b600054610100900460ff16806113e557506113e56114ba565b806113f3575060005460ff16155b6114315760405160e560020a62461bcd02815260040180806020018281038252602e815260200180612150602e913960400191505060405180910390fd5b600054610100900460ff1615801561145c576000805460ff1961ff0019909116610100171660011790555b61146582611941565b8015611477576000805461ff00191690555b5050565b600160a060020a03918216600090815260696020908152604080832093909416825291909152205490565b6000610fa26114b361175c565b84846119fa565b303b1590565b60006114cd848484611aec565b611543846114d961175c565b61153e8560405180606001604052806028815260200161210660289139600160a060020a038a1660009081526069602052604081209061151761175c565b600160a060020a03168152602081019190915260400160002054919063ffffffff611c5016565b6119fa565b5060019392505050565b600054610100900460ff168061156657506115666114ba565b80611574575060005460ff16155b6115b25760405160e560020a62461bcd02815260040180806020018281038252602e815260200180612150602e913960400191505060405180910390fd5b600054610100900460ff161580156115dd576000805460ff1961ff0019909116610100171660011790555b61146582611cea565b6115f7609d8263ffffffff611d9016565b604051600160a060020a038216907fe94479a9f7e1952cc78f2d6baab678adc1b772d936c6583def489e524cb6669290600090a250565b6116406101028263ffffffff611d9016565b604051600160a060020a038216907fcd265ebaf09df2871cc7bd4133404a235ba12eff2041bb89d9c714a2621c7c7e90600090a250565b611688609d8263ffffffff611dfa16565b604051600160a060020a038216907f6ae172837ea30b801fbfcdd4108aa1d5bf8ff775444fd70256b44e6bf3dfc3f690600090a250565b6116d16101028263ffffffff611dfa16565b604051600160a060020a038216907f6719d08c1888103bea251a4ed56406bd0c3e69723c8a1686e017e7bbe159b6f890600090a250565b6000610fa261171561175c565b8461153e856069600061172661175c565b600160a060020a03908116825260208083019390935260409182016000908120918c16815292529020549063ffffffff611e7e16565b3390565b600160a060020a0382166117be576040805160e560020a62461bcd02815260206004820152601f60248201527f45524332303a206d696e7420746f20746865207a65726f206164647265737300604482015290519081900360640190fd5b606a546117d1908263ffffffff611e7e16565b606a55600160a060020a0382166000908152606860205260409020546117fd908263ffffffff611e7e16565b600160a060020a03831660008181526068602090815260408083209490945583518581529351929391927fddf252ad1be2c89b69c2b068fc378daa952ba7f163c4a11628f55a4df523b3ef9281900390910190a35050565b6000600160a060020a03821661189f5760405160e560020a62461bcd02815260040180806020018281038252602281526020018061212e6022913960400191505060405180910390fd5b50600160a060020a03166000908152602091909152604090205460ff1690565b6000610fa26118cc61175c565b8461153e856040518060600160405280602581526020016121e760259139606960006118f661175c565b600160a060020a03908116825260208083019390935260409182016000908120918d1681529252902054919063ffffffff611c5016565b6000610fa261193a61175c565b8484611aec565b600054610100900460ff168061195a575061195a6114ba565b80611968575060005460ff16155b6119a65760405160e560020a62461bcd02815260040180806020018281038252602e815260200180612150602e913960400191505060405180910390fd5b600054610100900460ff161580156119d1576000805460ff1961ff0019909116610100171660011790555b6119da82611edb565b610135805460ff191690558015611477576000805461ff00191690555050565b600160a060020a038316611a425760405160e560020a62461bcd0281526004018080602001828103825260248152602001806121c36024913960400191505060405180910390fd5b600160a060020a038216611a8a5760405160e560020a62461bcd02815260040180806020018281038252602281526020018061206d6022913960400191505060405180910390fd5b600160a060020a03808416600081815260696020908152604080832094871680845294825291829020859055815185815291517f8c5be1e5ebec7d5bd14f71427d1e84f3dd0314c0f7b2291e5b200ac8c7c3b9259281900390910190a3505050565b600160a060020a038316611b345760405160e560020a62461bcd02815260040180806020018281038252602581526020018061217e6025913960400191505060405180910390fd5b600160a060020a038216611b7c5760405160e560020a62461bcd02815260040180806020018281038252602381526020018061201a6023913960400191505060405180910390fd5b611bbf8160405180606001604052806026815260200161208f60269139600160a060020a038616600090815260686020526040902054919063ffffffff611c5016565b600160a060020a038085166000908152606860205260408082209390935590841681522054611bf4908263ffffffff611e7e16565b600160a060020a0380841660008181526068602090815260409182902094909455805185815290519193928716927fddf252ad1be2c89b69c2b068fc378daa952ba7f163c4a11628f55a4df523b3ef92918290030190a3505050565b60008184841115611ce25760405160e560020a62461bcd0281526004018080602001828103825283818151815260200191508051906020019080838360005b83811015611ca7578181015183820152602001611c8f565b50505050905090810190601f168015611cd45780820380516001836020036101000a031916815260200191505b509250505060405180910390fd5b505050900390565b600054610100900460ff1680611d035750611d036114ba565b80611d11575060005460ff16155b611d4f5760405160e560020a62461bcd02815260040180806020018281038252602e815260200180612150602e913960400191505060405180910390fd5b600054610100900460ff16158015611d7a576000805460ff1961ff0019909116610100171660011790555b611d83826113b9565b6114655761146582611677565b611d9a8282611855565b611dd85760405160e560020a62461bcd0281526004018080602001828103825260218152602001806120e56021913960400191505060405180910390fd5b600160a060020a0316600090815260209190915260409020805460ff19169055565b611e048282611855565b15611e59576040805160e560020a62461bcd02815260206004820152601f60248201527f526f6c65733a206163636f756e7420616c72656164792068617320726f6c6500604482015290519081900360640190fd5b600160a060020a0316600090815260209190915260409020805460ff19166001179055565b600082820183811015610b67576040805160e560020a62461bcd02815260206004820152601b60248201527f536166654d6174683a206164646974696f6e206f766572666c6f770000000000604482015290519081900360640190fd5b600054610100900460ff1680611ef45750611ef46114ba565b80611f02575060005460ff16155b611f405760405160e560020a62461bcd02815260040180806020018281038252602e815260200180612150602e913960400191505060405180910390fd5b600054610100900460ff16158015611f6b576000805460ff1961ff0019909116610100171660011790555b611f7482610fab565b61146557611465826116bf565b828054600181600116156101000203166002900490600052602060002090601f016020900481019282601f10611fc257805160ff1916838001178555611fef565b82800160010185558215611fef579182015b82811115611fef578251825591602001919060010190611fd4565b50611ffb929150611fff565b5090565b610b0d91905b80821115611ffb576000815560010161200556fe45524332303a207472616e7366657220746f20746865207a65726f2061646472657373506175736572526f6c653a2063616c6c657220646f6573206e6f742068617665207468652050617573657220726f6c6545524332303a20617070726f766520746f20746865207a65726f206164647265737345524332303a207472616e7366657220616d6f756e7420657863656564732062616c616e63654d696e746572526f6c653a2063616c6c657220646f6573206e6f74206861766520746865204d696e74657220726f6c65526f6c65733a206163636f756e7420646f6573206e6f74206861766520726f6c6545524332303a207472616e7366657220616d6f756e74206578636565647320616c6c6f77616e6365526f6c65733a206163636f756e7420697320746865207a65726f2061646472657373436f6e747261637420696e7374616e63652068617320616c7265616479206265656e20696e697469616c697a656445524332303a207472616e736665722066726f6d20746865207a65726f20616464726573735061757361626c653a207061757365640000000000000000000000000000000045524332303a20617070726f76652066726f6d20746865207a65726f206164647265737345524332303a2064656372656173656420616c6c6f77616e63652062656c6f77207a65726fa265627a7a72315820b4754b83f384b9fad7888f34dd7395f2b42ce7d53885a8c77fe40fefc5f5f33264736f6c63430005110032",
  "source": "pragma solidity ^0.5.0;\n\nimport \"@openzeppelin/upgrades/contracts/Initializable.sol\";\nimport \"./ERC20Detailed.sol\";\nimport \"./ERC20Mintable.sol\";\nimport \"./ERC20Pausable.sol\";\n\n\n/**\n * @title Standard ERC20 token, with minting and pause functionality.\n *\n */\ncontract StandaloneERC20 is Initializable, ERC20Detailed, ERC20Mintable, ERC20Pausable {\n    function initialize(\n        string memory name, string memory symbol, uint8 decimals, uint256 initialSupply, address initialHolder,\n        address[] memory minters, address[] memory pausers\n    ) public initializer {\n        ERC20Detailed.initialize(name, symbol, decimals);\n\n        // Mint the initial supply\n        _mint(initialHolder, initialSupply);\n\n        // Initialize the minter and pauser roles, and renounce them\n        ERC20Mintable.initialize(address(this));\n        _removeMinter(address(this));\n\n        ERC20Pausable.initialize(address(this));\n        _removePauser(address(this));\n\n        // Add the requested minters and pausers (this can be done after renouncing since\n        // these are the internal calls)\n        for (uint256 i = 0; i < minters.length; ++i) {\n            _addMinter(minters[i]);\n        }\n\n        for (uint256 i = 0; i < pausers.length; ++i) {\n            _addPauser(pausers[i]);\n        }\n    }\n\n    function initialize(\n        string memory name, string memory symbol, uint8 decimals, address[] memory minters, address[] memory pausers\n    ) public initializer {\n        ERC20Detailed.initialize(name, symbol, decimals);\n\n        // Initialize the minter and pauser roles, and renounce them\n        ERC20Mintable.initialize(address(this));\n        _removeMinter(address(this));\n\n        ERC20Pausable.initialize(address(this));\n        _removePauser(address(this));\n\n        // Add the requested minters and pausers (this can be done after renouncing since\n        // these are the internal calls)\n        for (uint256 i = 0; i < minters.length; ++i) {\n            _addMinter(minters[i]);\n        }\n\n        for (uint256 i = 0; i < pausers.length; ++i) {\n            _addPauser(pausers[i]);\n        }\n    }\n}\n",
  "sourcePath": "@openzeppelin/contracts-ethereum-package/contracts/token/ERC20/StandaloneERC20.sol",
  "compiler": {
    "name": "solc",
    "version": "0.5.17+commit.d19bba13.Emscripten.clang"
  },
  "schemaVersion": "3.3.4",
  "updatedAt": "2021-04-20T06:31:31.184Z",
  "devdoc": {
    "methods": {
      "allowance(address,address)": {
        "details": "See {IERC20-allowance}."
      },
      "balanceOf(address)": {
        "details": "See {IERC20-balanceOf}."
      },
      "decimals()": {
        "details": "Returns the number of decimals used to get its user representation. For example, if `decimals` equals `2`, a balance of `505` tokens should be displayed to a user as `5,05` (`505 / 10 ** 2`).     * Tokens usually opt for a value of 18, imitating the relationship between Ether and Wei.     * NOTE: This information is only used for _display_ purposes: it in no way affects any of the arithmetic of the contract, including {IERC20-balanceOf} and {IERC20-transfer}."
      },
      "initialize(string,string,uint8)": {
        "details": "Sets the values for `name`, `symbol`, and `decimals`. All three of these values are immutable: they can only be set once during construction."
      },
      "mint(address,uint256)": {
        "details": "See {ERC20-_mint}.     * Requirements:     * - the caller must have the {MinterRole}."
      },
      "name()": {
        "details": "Returns the name of the token."
      },
      "pause()": {
        "details": "Called by a pauser to pause, triggers stopped state."
      },
      "paused()": {
        "details": "Returns true if the contract is paused, and false otherwise."
      },
      "symbol()": {
        "details": "Returns the symbol of the token, usually a shorter version of the name."
      },
      "totalSupply()": {
        "details": "See {IERC20-totalSupply}."
      },
      "unpause()": {
        "details": "Called by a pauser to unpause, returns to normal state."
      }
    },
    "title": "Standard ERC20 token, with minting and pause functionality. "
  },
  "userdoc": {
    "methods": {}
  }
}